:020000040000FA
:060000000212AE0207A48B
:03002B00020F07BA
:03003300020DCBF0
:03004300020F2D7C
:030053000206D9C9
:03006B00020DA5DE
:10008300020738010105030101FF0F10FEFF77345A
:10009300000000004B3300000000FF000000FF00E1
:1000A300010020FD000206FFFF0101040200641CA1
:1000B30000000010270000FFFF2F1D031027000082
:1000C30064006400B801A0BB0D00A0BB0D000202D8
:1000D300000800000502070401051E02051E020AAE
:1000E3000A010208080103B80B02803E0102FEFF69
:1000F300E8030A05000101FFFF0A1401E001D51D11
:1001030000000001D62BDC2B000000000000E22BD6
:10011300E82B000000000000002C0000000000009D
:10012300000000000000000000000000102020205C
:100133002020202020202020202020202001051EF8
:10014300017E0104010101000681800D678000002A
:100153002041CDCCCC3D1212BE601D1212CD7005D4
:10016300191919801A12115F701F121173C37003CA
:10017300E667331919194007181818220808087474
:10018300FFF618F618F618F62212117360171213F9
:1001930073702192F012137C7019501720F0140819
:1001A3000808090909E7F61819E7F61819E7F61810
:1001B30019E7F62212137C60E6E869701F0808E667
:1001C3002480F608E436F618547FB47F0CE6548096
:1001D3006007F6E418F618F622181822E9C6CC08C8
:1001E300C6CD08C6CE08C6CFC0E0E8C0E0EAC0E08E
:1001F300EBC0E009E9F809E7FA09E7FBE6F918E6D5
:10020300F8C3EC98ED99EE9AEBC2E7F5F0EFC2E78D
:1002130095F0500E600CEBCFFBEACEFAE9CDF9E88E
:10022300CCF8EAA2E7D2E7FAEB33FB13F5F0EEA240
:10023300E7D2E7FEEF33FFC5F013A2E730E601B3E1
:1002430013C5F0C3C0E0C0F07F00C39BFB605E94A6
:1002530018600F401D14601AD0E023F9D0E0F802B3
:10026300033A8AF0E9486003D2F0E4AFF0FAF9F810
:10027300803BEB30E40D89F0EA6003D2F0E4AFF0A9
:10028300F9CAF8EB30E30D88F0EF6002D2F0AFF07B
:10029300E4CAC9F8EB54076014FBC3EA13FAE91381
:1002A300F9E813F8EF135002D2E0FFDBEDD0E0C022
:1002B300E030E739C3E49FFFF5F0EC98FC42F0ED42
:1002C30099FD42F0EE9AFE42F0D0E0F9D0E0F8E575
:1002D300F0607AE923F9EE20E742D8028067C3EFA2
:1002E30033FFEC33FCED33FDEE33FE80EAEC28FC08
:1002F300ED39FDEE3AFED0E023F9D0E0F84002807C
:100303001BC3EE13FEED13FDEC13FCEF135002D2EF
:10031300E0FF08B800067F7F74FF802EEF3350178D
:100323008CF020F00260100CBC000C0DBD00080E18
:10033300BE000408E860DFE933E813FFEE2313FE91
:100343004F4D4C8008E95480FFE4FEFDFCEE33EF93
:1003530033F47004FCFD7E80D0E0FBD0E0FAD0E003
:10036300F8D0E0CFC618CEC618CDC618CCC6F92231
:100373001212BE7004181818221212CD700D74FFD9
:10038300F61819F61819F61819F622E7548066F6C6
:1003930012137C700F12137370F014F608F608F63C
:1003A30008F680D1121373700CF608F608768008ED
:1003B300E6447F80EC121176700C12116260BFE686
:1003C3005480F6E480BB121162700519191980A5D7
:1003D300E869700C763F18768018F618F6E8F9226B
:1003E300E6CDC0E018ECC0E0E633CD33CDD313F651
:1003F300E719FCE7191933CC33C3947F400ECD9D25
:10040300502408E65480F6E418F6800FF4043D14F3
:10041300501408E6447FF6187680E418F618F6D0F0
:10042300E0FCD0E0FD22CCD313CCFD18E4C6CBC056
:10043300E018E4C6CAC0E00808ED08C633E613F6C0
:1004430018E433C675F003C3CA97CA09CB97CB190F
:100453009C40047D08802EBD000302051C16B6FFD8
:10046300050606081618C3CA33CACB33CB33CA27CB
:10047300CA09CB37CB193CC37D08803E187D0820C1
:10048300E75CC633C6CA33CACB33CB33DDF1D5F011
:10049300EB30E77BCA97CA09CB974ACB199C406FCD
:1004A3004B7025E620E0218066187D08C3CA97CAF1
:1004B30009CB97CB199CD3C633C6CA33CACB33CB2C
:1004C3003350C9DDE7D5F0E1D3E4C636C608C636F6
:1004D300C608C636C608C636C61818188031C3CA39
:1004E30097CA09CB97CB199CB34097C633C6CA3377
:1004F300CACB33CB33DD34D5F02EC6A2E0C640C819
:10050300CA27CA09CB37194A70BECB3CB480B90895
:1005130008E63308E633601F181818D0E0FAD0E075
:10052300FBD0E0FCD0E0FD22187D08CA27CA09CB26
:1005330037CB193CD3808013F618E4B67F11F61835
:10054300B6FF0EF618C60470D20808768080CAF685
:1005530018F618F680C5001212BE604F1212CD6055
:1005630012E7548066F612115F7011121373703B19
:10057300090909F4F618F618F618F6221211737021
:100583001512137C08080860EAE6447FF6187680A3
:1005930018E4F618F62212137C6016121373701205
:1005A300E4F608F608F608E65480F609090918186F
:1005B3001822EAC0E0EBC0E0ECC0E0EDC0E0E68763
:1005C300F0A4FBACF008E687F0A42CFCE435F0FAC9
:1005D3001809E687F0A42C4B60027401CA35F0FCBD
:1005E300E433FB09E687F0D2F7A42CCB35F0FC19F2
:1005F30008E687F0A42BCC35F0FBE433FD0819E6BD
:1006030087F0D2E7A42C4ACB35F0CD3400FC09E6C1
:1006130087F0D2E7A42DCC35F0FDE433FA0918E6D0
:1006230087F0D2F7A42CCD35F0CA3400FC08E68756
:10063300F0D2E7D2F7A42ACC35F07A7E20E70B0A72
:10064300CB33CBCD33CDCC33CC33CB33501470043D
:10065300ED30E00ED2F1E4CD3DCDCC3CCC3B5005AA
:10066300DA05C2F1EB547FC63308E63392F0FBE7B9
:100673003309E733C39A502D2B70190C0D4C4D7071
:10068300151806E608C333700D20F10AA2F013F61D
:10069300E418800B4024E4F630F002768018F61854
:1006A300F618F68024D33B14501074FFA2F013F60F
:1006B300187680E418F618F6800FA2F013F618E601
:1006C3003303F618ECF618EDF6D0E0FDD0E0FCD0DD
:1006D300E0FBD0E0FA22C0E074F1120B23A2AFE4F6
:1006E30033F509D2AF85A708AFA1EF5508FE741003
:1006F3005E600612213E75A1EF74085E6008122148
:100703004475A1F78024EFA2E092F0E508A2E0820D
:10071300F05017906198E0F8900CC3E0C398A2D210
:1007230065D0335002E8F075A1FEE509A2E092AF6F
:100733007F02020B82C0E074F2120B23A2AFE433F8
:10074300FED2AF9061A4E0F8759B00E59158540880
:1007530060087591F712218C8023E591585410603D
:10076300087591EF1221928014E591A2E092F0E8CE
:10077300A2E082F05007E0C2E0F01222DC9061A315
:10078300E0F8E5E9585404600E1222B275E9FB90D3
:100793006193E0A2E640F2EEA2E092AF7F01020B8A
:1007A30082C0E074F2120B23A2AFE433FED2AF9007
:1007B30061A5E0F8E5BF585404600675BFFB12223B
:1007C300F480D4C3E498F8E499F91208078026C3A7
:1007D300E49AFAE49BFBE920E7E9120807E498F8B6
:1007E300E499F922C3E498F8E499F9120807E49824
:1007F300F8E499F9C3E49AFAE49BFB22EB20E7CFF0
:10080300E920E7E0B90010BB0008E88AF084F8AA01
:10081300F022E4FBC8FA22EB70227B10C833C8C96C
:1008230033C9335007C39AC3DBF280069A50012AB7
:10083300DBEAC833F4C8C933F4C9FA2275F008E413
:10084300C833C8C933C933C99AC99B5004C92AC913
:100853003BD5F0ECFBC833F4C8E4C9FA221208A074
:1008630020F01430E72B74FFFCFBFA747F8022E442
:10087300FCFBFA7480801AB48008BC00F2BB00EF62
:10088300800F50EBF9E4C39AFAE49BFBE49CFCE48D
:1008930099C6CC18C6CB18C6CA18C6F922E4C9C66D
:1008A30008CAC608CBC6D3330308CCC63392F0C3F9
:1008B300947F402E94184019C9B90704CACBCC229F
:1008C3005025C309CA33CACB33CBCC33CC33D9F489
:1008D30022F4600DC9CCC313CB13CBCA13CAD9F608
:1008E300CC22E4FCFBFA2214FCFBFA22080808EAF7
:1008F300C0E0EBC0E086F0E7A4FA180986F0E7A4AD
:100903002AFA180986F0E7A42AFA180986F0E7A458
:100913002AFA1986F0E7A4FBE5F02AFA190886F00B
:10092300E7A42BFBE5F03AFA190886F0E7A42BFBC2
:10093300E5F03AFA18180986F0E7A4C5F02BFBE4B2
:100943003AFA1908E7C5F0C6A426F6E5F03BFBE43E
:100953003AFA1886F0E7A4F6E5F00826F6E43B0831
:10096300F6E43A08F6D0E0FBD0E0FA22080808E6FD
:1009730030E71112114B120987080808C64480C6D4
:1009830018181822181818E9799EC608CAC608CB81
:10099300C608CCC6C370207996CACBCC7019798EA1
:1009A300CBCC70137986CC700EF9802ACA33CACBAC
:1009B30033CBCC33CC331930E7F2CCCBCA3350141E
:1009C3007004EA30E00DE4CA3ACACB3BCBCC3CCC52
:1009D300500209C3E913C6CC182313C6CB18C6CAE1
:1009E30018C6F922E4CFC0E0E4CEC0E0E4CDC0E015
:1009F300E4CCC0E075F020E626F608E633F608E618
:100A030033F608E633F6181818EC33FCED33FDEE35
:100A130033FEEF33FFC3EC9709ED9709EE9709EF28
:100A230097191919400FFFEC97FC09ED97FD09EE93
:100A330097FE191906D5F0BFECF709EDF709EEF7A4
:100A430009EFF7191919D0E0FCD0E0FDD0E0FED092
:100A5300E0FF222518C582C0E0E51934FFC583C035
:100A6300E0E518C3958224F810AF088583198582C1
:100A7300188008858319858218D2AFCEF0A3E520AC
:100A8300F0A37808E608F0A3DEFAEFF0A3E58124EB
:100A9300FAF8E608F0A3E608F0A3E608F0A30808CE
:100AA300E608F0A3E608F0A315811581D0E0FED097
:100AB300E0F8158115811581E8C0E0EEC0E022D091
:100AC30083D082E9C0E0E493A3C386F0C5F095F038
:100AD300F908E493A386F0C5F095F0702408E49335
:100AE300A386F0C5F095F0701908E493A386F0C5CA
:100AF300F095F0700E08E493A3C3994007E90480CE
:100B030004A3A3A3E475F002A42582F582E5F035DE
:100B130083F583D0E0F9E493A3C0E0E493C0E0223B
:100B2300C0D02518C582C0E0E51934FFC583C0E0F5
:100B3300E518C3958224F310AF08858319858218BD
:100B43008008858319858218D2AFC8F0A3E9F0A382
:100B5300EAF0A3EBF0A37908E709F0A3D8FAECF0E5
:100B6300A3EDF0A3EEF0A3EFF0A3D0E0F0A3D0E069
:100B7300F0A3D0E0F0A3E520F0A3E5F0F0A32285F5
:100B83001983851882E0C0E0A3E0F9A3E0FAA3E0AB
:100B9300FBA37808E0F608A3DFFAE0FCA3E0FDA3DB
:100BA300E0FEA3E0FFA3E0C0E0A3E0C0E0A3E0F524
:100BB300D0A3E0F520A3E0A3F5F010AF08858319D7
:100BC3008582188008858319858218D2AFD082D098
:100BD30083D0E0F8D0E03212135EB90003020C199F
:100BE300E49003017816791C8002F0A3D8FCD9FAAB
:100BF3007A167B1E90008678D479018015E493A33E
:100C0300AD82AE838A828B83F0A3AA82AB838D826B
:100C13008E83D8E9D9E77582B7758392740612106B
:100C23000E7582B275832E740012100E0375F010C8
:100C33008E1A8F1B85821F85831E851882851983D3
:100C4300E0CEA3E0CF851F82851E83EBC9EAC8ED02
:100C5300CBECCAC3E833C8E933C9EA33CAEB33CBB5
:100C6300C3EA9EF51DEB9FF51CB35004AB1CAA1DF4
:100C7300EC33CCED33CDD5F0DAAE1AAF1B22121222
:100C8300BE601B1212CD601612137C700712137311
:100C9300600CB322C0D01213737005D0D022C322CC
:100CA30033D0D0501330E0EBC3E7960809E796083A
:100CB30009E7960809E7962220E0E4E6970809E6A3
:100CC300970809E6970809E69722D083D082ECC0FB
:100CD300E0EDC0E0E493A3FCE493A3FDED4C600DD1
:100CE300120DE9EC24FFFCED34FFFD80EFE493A348
:100CF300FCE493A3FDED4C600D120EB2EC24FFFC5B
:100D0300ED34FFFD80EFD0E0FDD0E0FCE493A3C021
:100D1300E0E493C0E022D083D082E9C0E0E493A36F
:100D2300C386F0C5F095F0F908E493A386F0C5F007
:100D330095F0700BE493A3C3994005E9048002A3E3
:100D4300E475F002A42582F582E5F03583F583D0BE
:100D5300E0F9E493A3C0E0E493C0E022851983851E
:100D63001882E0A3FEE0A3F5207808E0A3F608DFED
:100D7300FAE0A3FFE0A3C0E0E0A3C0E0E0A3C0E08B
:100D8300E0A3C0E0E0A3C0E010AF0885821885832C
:100D9300198008858218858319D2AFD083D0820247
:100DA3001014C0E074F2120B23A2AFE433FED2AFEF
:100DB300E589A2E15003122036758900C2C5EEA26F
:100DC300E092AF7F01020B82C0E074F2120B23A208
:100DD300AFE433FED2AFE58BA2E0500312203675A9
:100DE3008B00C2E880D8C0E0C3E4939608740193F3
:100DF3009618400FE49366700808740193661870A0
:100E0300007019A3A3C3E49396087401939618A3DF
:100E1300A3400DD0E0D0E0D0E0020D09A3A3A3A32B
:100E2300A3A3D0E0227404800474028000CCC0E049
:100E3300EDC0E0E518C39CCCAD1950011D10AF0601
:100E43008C188D1980068C188D19D2AF120F72D0A1
:100E5300E0FDD0E0FC2274028000CCC0E0EDC0E0F5
:100E6300E518C39CCCAD1950011D10AF068C188D2D
:100E73001980068C188D19D2AF120F50D0E0FDD017
:100E8300E0FC221212BE60251212CD602012137CE8
:100E93007003021373080808E76670101819E766F1
:100EA300700A1819E76670041819E76622F422C05D
:100EB300E0C0F088F0E49366700808740193661844
:100EC3007000A8F0A3A3700BD0F0D0E0D0E0D0E086
:100ED300020D09A3A3D0F0D0E022D083D082CCC0EE
:100EE300E0E493A36006120FD11470FAE493A360B5
:100EF300061210F61470FAD0E0FCE493A3C0E0E409
:100F030093C0E022C0E0C0D0E8C0E0E9C0E0A9A8F7
:100F1300D2AFC2C7E9A2E7E433F8E9A2E792AFD0C0
:100F2300E0F9D0E0F8D0D0D0E032C0E074F2120B98
:100F330023A2AFE433FED2AFC2C0E5D1A2E4500393
:100F43001220AEEEA2E092AF7F01020B82CAC0E094
:100F5300E493A3C582CCC582C583CDC583F0A3C565
:100F630082CCC582C583CDC583DAE5D0E0CA22CA67
:100F7300C0E0E0A3C582CCC582C583CDC583F0A301
:100F8300C582CCC582C583CDC583DAE6D0E0CA224B
:100F93007009080808226016181818C6C333C60853
:100FA300C633C608C633C608C633C6D5E0EA22C070
:100FB30008C3E096F50808A3E096420808A3E09664
:100FC300420808A3E09645087001D3D00822C0E088
:100FD300E493A3D39C5010E493A3C39C400AD0E0B2
:100FE300D0E0D0E0020EFAA3A3A3D0E022C582256D
:100FF30018C582C583351910AF07F5198582188086
:1010030007F519858218D2AFC58322C09FF59FE4E7
:1010130073D09F22D083D082C09FE493C0E0740139
:1010230093C0E0740293F59F227404800A740380D2
:1010330006740280027401C0E0F404121047D0E089
:10104300121309222518F58210AF08F518400C1564
:10105300198008F51840021519D2AF8519832200AB
:10106300C0D0251810AF08F518500C05198008F5E5
:101073001850020519D2AFD0D022BB0102E722C01B
:1010830082C08389828A83BB0003E08002E493D019
:1010930083D082226016080808C6C313C618C61375
:1010A300C618C613C618C613C6D5E0EA222518F813
:1010B300E43519F9222518FAE43519FB222518FC21
:1010C300E43519FD22C3E0C696F608A3E0C696F6FA
:1010D30008A3E0C696F608A3E0C696F622251810E4
:1010E300AF08F518400C15198008F51840021519BA
:1010F300D2AF22C0E0E493A36C7009D0E0D0E0D07B
:10110300E0020EFAA3A3D0E022E066701008A3E089
:1011130066700A08A3E066700408A3E06622C3E0D1
:101123009608A3E09608A3E09608A3E096A2D265EA
:10113300D03322E76670100809E766700A0809E7EA
:101143006670040809E76622181818E4C396F608BF
:10115300E496F608E496F608E496F622181818E6DC
:101163000846087009E626087005E633F4220822CB
:10117300191919E70947097009E727097005E733C2
:10118300F4220922C3E096F008A3E096F008A3E056
:1011930096F008A3E096F022C3E697F60809E697CF
:1011A300F60809E697F60809E697F622C3E493964C
:1011B3000874019396087402939608740393962215
:1011C300E627F60809E637F60809E637F60809E6DA
:1011D30037F622700422600D18C6C333C608C6331F
:1011E300C6D5E0F41822E657F60809E657F60809CB
:1011F300E657F60809E657F622E056F608A3E05646
:10120300F608A3E056F608A3E056F622E056F008E7
:10121300A3E056F008A3E056F008A3E056F022E05E
:1012230026F608A3E036F608A3E036F608A3E03670
:10123300F622E026F008A3E036F008A3E036F00833
:10124300A3E036F022E493F608740193F6087402DF
:1012530093F608740393F622E647F60809E647F681
:101263000809E647F60809E647F622600D08C6A214
:10127300E713C618C613C6D5E0F322C6F4C608C6DC
:10128300F4C608C6F4C608C6F4C622C3E79608091E
:10129300E7960809E7960809E79622C3E09608A3AC
:1012A300E09608A3E09608A3E0962275D000758126
:1012B3003F75180175190300020BDAE6084608C3E7
:1012C300134608336002E633F422E7094709C313E0
:1012D3004709336002E733F422600C08C6C313C620
:1012E30018C613C6D5E0F422E6F008A3E6F008A377
:1012F300E6F008A3E6F022E0F608A3E0F608A3E090
:10130300F608A3E0F622CAC0E0E6F0A308DAFAD0B2
:10131300E0FA22E0FCA3E0FDA3E0FEA3E0FF22EA63
:10132300F0A3EBF0A3ECF0A3EDF022E0FAA3E0FBD3
:10133300A3E0FCA3E0FD22E8F0A3E9F0A3EAF0A315
:10134300EBF022ECF0A3EDF0A3EEF0A3EFF022E03C
:10135300F8A3E0F9A3E0FAA3E0FB22E5C754F844BD
:1013630001F5C77901222518F582E43519F58322A1
:10137300E72719471947194722E62618461846183A
:101383004622C2AF75D69F0200002212101736A85C
:10139300031210177FA8031210179BA8031210172C
:1013A3000CA90312101758A903121017A1A90312AD
:1013B3001017DFA90312101760AA0312101707AB47
:1013C30003121017D6AC031210173BAD03121017FC
:1013D30069AE031210178FAE03121017D7AF0312A3
:1013E300101711B3031210170FB503121017DAB643
:1013F3000312101773B70312101774B903121017DF
:1014030029BA0312101762BA03121017C8BA0312CB
:101413001017D2BA03121017FBBC031210173ABEEF
:101423000312101791BE031210173CBF03121017BB
:10143300ECC00312101739C20312101759C203125A
:101443001017AEC203121017AFC303121017D7C37E
:101453000312101736C4031210172EC503121017E8
:10146300A5C503121017B8C60312101726C7031217
:10147300101725C8031210177FCA03121017A8CA22
:10148300031210170ECC0312101790CD031210176E
:10149300E7CD0312101795CE031210173ACF03129C
:1014A300101793CF0312101751D003121017E3D064
:1014B3000312101742D10312101784D1031210170D
:1014C300B5D1031210170CD30312101700800212A8
:1014D30010173280021210176B8002121017298224
:1014E300021210176D820212101743830212101793
:1014F300A28302121017B884021210170485021275
:1015030010179287021210176C8A02121017B38BEE
:10151300021210174B8C02121017578C021210175D
:10152300A08C02121017E28D02121017D88E02122D
:101533001017028F02121017588F02121017B18F53
:10154300021210172490021210175A920212101747
:10155300DC9302121017C79402121017119602128D
:101563001017499802121017469B02121017559B29
:1015730002121017E99B02121017949C0212101703
:10158300D79C02121017209D02121017709D021291
:101593001017D49D02121017469E02121017629E56
:1015A30002121017919E02121017D09E02121017EA
:1015B300CB9F021210177AA002121017F7A2021281
:1015C300101729A40212101701A50212101783A5E0
:1015D30002121017B8A902121017E7A90212101766
:1015E30042AA0212101775AA02121017EDAA0212CC
:1015F300101720AB0212101781AB02121017D1ABD8
:10160300021210179EAC0212101757AD02121017D8
:101613001BAE0212101795B002121017F7B1021287
:10162300101748B3021210176CB4021210176FB4DC
:10163300021210179EB40212101796B60212101758
:1016430055B70212101784B70212101711B90212FC
:10165300101781B90212101714BA0212101787BAA1
:1016630002121017B0BC021210170FBD021210178E
:1016730063BD0212101792BF0212101775C0021237
:10168300101731C10212101745C10212101759C1A8
:101693000212101786C102121017B6C102121017D8
:1016A300BDC30212101769C402121017D7C4021265
:1016B3001017FEC402121017C6C5021210176CC60B
:1016C30002121017F2C7021210177DC80212101768
:1016D300C4C80212101736C9021210178BCA02129D
:1016E300101734CB0212101768CB0212101780CBDD
:1016F3000212101723CC021210179FCE02121017DA
:1017030047D00212101765D00212101783D00212AD
:1017130010174FD1021210179DD402121017128402
:10172300011210174A84011210174A890112101767
:10173300908901121017C68A011210172B8B011200
:101743001017A08C01121017AA8F01121017D59031
:1017530001121017E89A01121017789B0112101743
:10176300629E011210176F9F01121017E29F011260
:10177300101746A10112101725A20112101793A4E6
:101783000112101725A601121017B2A60112101785
:10179300D9A70112101701A801121017A1A801124D
:1017A30010178CA90112101759AA0112101776AA43
:1017B300011210179FAA01121017CCAA01121017B9
:1017C30013AD01121017E2AD0112101721AE011271
:1017D3001017A3AE0112101744AF0112101776AF02
:1017E30001121017BDAF01121017F0AF011210173D
:1017F30034B00112101783B00112101788B0011210
:101803001017E4B00112101728B10112101702B219
:101813000112101767B201121017CDB2011210177F
:1018230048B301121017B0B601121017B3B7011263
:10183300101731B90112101747BC01121017E9BC78
:101843000112101732BF01121017EDBF011210174A
:101853002CC00112101704C20112101721C2011269
:1018630010172AC20112101733C2011210173EC2F9
:10187300011210175DC20112101701C401121017D3
:101883005EC40112101768C40112101772C401124A
:101893001017D3C4011210171DC5011210171EC64D
:1018A3000112101775C60112101786C701121017FF
:1018B300CFC70112101789C801121017A0C901124E
:1018C300101775CA01121017BCCB01121017C0CC28
:1018D30001121017B9CD01121017D1CD0112101733
:1018E30008CE0112101712CE011210171DCE0112CD
:1018F30010173BCE0112101783CE01121017E1CE41
:101903000112101708CF011210171ACF0112101766
:10191300CFCF0112101708D0011210172AD10112CC
:1019230010177DD10112101763D2011210178AD23A
:1019330001121017FAD20112101776D301121017E1
:10194300D2D401121017F9D501121017BBD6011208
:10195300101789D70112101747D8011210172FD962
:1019630001121017D9D90112101741DA01121017F9
:10197300F6DA0112101752DB01121017AADB01125B
:10198300101770DC0112101793DC011210174EDDD3
:101993000112101770DD01121017D1DD011210179B
:1019A30001E001121017FAE001121017A6E101126B
:1019B3001017C7E30112101710E4011210175BE4AC
:1019C30001121017B7E40112101715E501121017D1
:1019D30039E5011210175DE50112101792E50112A6
:1019E3001017BAE501121017FFE50112101753E69D
:1019F30001121017ACE601121017A6E70112101717
:101A030044E90112101789E901121017B2E9011212
:101A130010173BEA01121017AEEA01121017BCEAC5
:101A230001121017E0EA0112101736EB011210171A
:101A330051EB011210170CEC0112101738EC0112C4
:101A430010177BEC01121017DEEC01121017ECEEED
:101A53000112101718EF01121017D3EF011210170C
:101A6300B7F0011210174BF101121017CDBA05127E
:101A7300101705BB0512101726BB0512101768BBFC
:101A830005121017CCBB05121017D6BB0512101781
:101A9300E6BB051210171DBC05121017C6BF0512B1
:101AA30010178EC10512101772C30512101714C434
:101AB300051210179EC405121017B837001210171D
:101AC3006138001210174039001210174C3A0012F7
:101AD30010176C3A001210178E3B001210173E3D80
:101AE30000121017AB3D001210177C3E00121017A6
:101AF300823F00121017FA3F0012101735400012F0
:101B030010178E4000121017C9400012101712410F
:101B130000121017A641001210173C4200121017B2
:101B2300114300121017E4430012101772440012FD
:101B33001017984400121017C54400121017F644EA
:101B430000121017C34500121017D34500121017C7
:101B53002646001210173346001210174046001293
:101B63001017494600121017AD46001210170B4705
:101B73000012101756470012101771470012101762
:101B8300984700121017B54700121017C1470012EB
:101B930010175249001210176B4900121017E7492A
:101BA30000121017FA49001210170A4A00121017F0
:101BB300AE4A001210171A4C001210172D4D0012C6
:101BC3001017CD4D00121017D74D00121017564E97
:101BD30000121017674E00121017A64E00121017AE
:101BE300D44E00121017A14F00121017F84F001215
:101BF3001017315000121017875000121017A550FC
:101C030000121017F35000121017BE5100121017D4
:101C13000C5200121017595200121017DC52001206
:101C230010170653001210173C53001210174B5392
:101C330000121017AA530012101722540012101783
:101C4300635400121017B35400121017DE5400121D
:101C53001017F85400121017125500121017E755F9
:101C630000121017F15500121017325600121017F8
:101C7300835600121017975600121017B957001207
:101C83001017CE5700121017615800121017D558AD
:101C9300001210177A5900121017855900121017E5
:101CA300E85A00121017045B00121017505B001261
:101CB3001017BE5B00121017F05B001210170A5CBE
:101CC300001210176A5C00121017095D001210173A
:101CD300545D00121017A75F001210173F60001227
:101CE3001017B660001210171363001210172B633E
:101CF300001210172E63001210173A630012101708
:101D03004E63001210175663001210178D630012F2
:101D130010178164001210170B65001210178D65E0
:101D2300001210170D6600121017E4660012101748
:101D33000667001210179F6700121017FC67001246
:101D43001017FF67001210176E6800121017BA6998
:101D530000121017CD6A00121017586B00121017DB
:101D63006B6C00121017326D00121017636D0012A6
:101D73001017896D00121017926D00121017C16DA4
:101D830000121017716E00121017216F0012101736
:101D9300946F00121017377000121017AA700012F8
:101DA3001017E9700012101732710012101705B0E6
:101DB3000512101772B005121017BEB005121017D6
:101DC30010B10512101790B1051210178DB305123B
:101DD3001017A0B505121017D9B80512101708B9B6
:101DE3000512101726B90512101790B9051210170E
:101DF300B8B905121017EBB90512101720BA05125E
:101E0300101782BA05121017677100121017857127
:101E130000121017997100121017C07100121017D9
:101E2300FA71001210174F7200121017D6720012B7
:101E33001017627400121017647500121017B97529
:101E430000121017AD7600121017ED76001210175E
:101E5300777700121017A87800121017EC78001289
:101E63001017227A001210177D7A00121017697B5F
:101E730000121017007C001210173A7C0012101782
:101E83007F7C00121017C67C00121017FB7D001216
:101E930010170CF20112101788F201121017B6F284
:101EA30001121017FBF2011210175CF40112101744
:101EB30078F401121017AEF40112101727F501126E
:101EC300101775F50112101705F601121017DDF63C
:101ED300011210172EF70112101793F701121017A2
:101EE30006F8011210174AF801121017A2F801128E
:101EF3001017C4F80112101754F901121017E5F95D
:101F0300011210171DFA0112101746FA01121017C9
:101F130087FA0112101728FC011210170AFD01128B
:101F23001017E6FD01121017889F041210179D9FCA
:101F330004121017C69F0412101709A004121017D9
:101F430034A004121017C2A004121017ECA004123C
:101F5300101739A1041210178BA104121017DAA15C
:101F63000412101721A204121017D0A30412101781
:101F73004AA404121017BEA40412101738A50412A1
:101F83001017BEA50412101771A60412101726A766
:101F93000412101788A804121017C5A804121017EA
:101FA30075A9041210177BAA0412101755AC04125A
:101FB3001017A7AF04121017DAAF0412101734B1B9
:101FC30004121017FFB604121017DCB7041210170F
:101FD300759E06121017869E06121017249F06126E
:101FE3001017F37F00121017B9A30612101756FF2C
:101FF3000312101766FF0312101781FF0312101745
:10200300E9FF03121017989B061210171C9C061267
:102013001017829C06121017A99406121017CB945E
:10202300061210173195061210173BA20312101750
:10203300989506121017F19506121017C0FE01129B
:102043001017D5FE0112101749FF0112101763FF75
:10205300011210177AFF011210178DFF01121017CA
:10206300A5FF01121017BAFF0112101750870612AD
:1020730010175E8706121017D78706121017AC8841
:10208300061210177E8A0612101799A2061210174D
:10209300C9D80512101736D905121017EED9051233
:1020A3001017E1DA051210174EDC05121017B5DC14
:1020B30005121017C4A70312101719DD0512101704
:1020C30029DD051210179DDD05121017B3DD05126A
:1020D3001017BDDD0512101793D305121017BFD3C8
:1020E3000512101755D60512101795D6051210179D
:1020F300D1D605121017E5D605121017FED6051214
:102103001017EFD705121017A1D805121017B5D85D
:102113000512101730960612101754960612101750
:102123006D9606121017AB9606121017E19606125B
:10213300101714970612101780970612101783971B
:10214300061210178D97061210179A97061210177A
:10215300B1FC05121017D4FC051210171FFD051250
:1021630010173DFD0512101758FD05121017BEFD7F
:1021730005121017CAFD0512101727FE05121017B6
:102183004BFE0512101711FF051210171EFF051243
:1021930010172FFF051210179CA006121017B4A0DA
:1021A30006121017E0A0061210171CE305121017F1
:1021B30080E4051210178EE405121017A2E405122D
:1021C3001017BFE405121017D4E405121017E7E443
:1021D3000512101769E505121017CEE50512101741
:1021E30064E6051210173DE7051210174DE70512B7
:1021F30010175CE7051210175A7F001210177E7F25
:1022030000121017A67F00121017CE7F00121017AE
:10221300869006121017AD9006121017CB90061277
:102223001017409106121017FDFC0412101716FD2B
:10223300041210172DFD0412101736FD0412101787
:1022430054FD041210175EFD0412101768FD0412EA
:1022530010177BFD0412101701FE0412101776FEEF
:1022630004121017A4FE04121017F5FE041210171F
:1022730041FF041210175CFF0412101766FF0412CB
:10228300101777FF04121017BAFF0412101729A1B1
:1022930006121017FAF50212101726F6021210177B
:1022A30049F6021210175CF60212101777F60212A3
:1022B3001017DBF60212101709F70212101719FB99
:1022C300021210176EFC02121017A0FC0212101754
:1022D3000BFD0212101772FE021210179AFE021261
:1022E3001017AFFE02121017BFFE02121017FFFEE7
:1022F3000212101741FF0212101751FF021210179A
:102303000799061210171799061210173B99061210
:1023130010176499061210178E9906121017B299A6
:1023230006121017C99906121017F79906121017FB
:102333001A9A0612101755A206121017AA8306122C
:102343001017BA8306121017D884061210170C85BB
:10235300061210172E85061210175685061210172F
:102363006F8506121017AB85061210170D8606121D
:102373001017528606121017978606121017C48676
:1023830006121017FC8606121017A49706121017D0
:10239300C49706121017D79806121017DA98061268
:1023A3001017EE9F0612101724A00612101740A054
:1023B3000612101782A00612101792A00612101709
:1023C30070CC05121017AACC0512101713CD0512E5
:1023D300101732CD05121017D4CD05121017DDCD0D
:1023E300051210172ECE0512101757CE051210170F
:1023F30064CE05121017D5CE0512101763CF051240
:102403001017B1CF05121017E7CF0512101748D0D8
:102413000512101770D005121017E7D00512101708
:1024230043D10512101786D105121017C3D1051217
:102433001017D5D105121017E7D10512101706D2C0
:10244300051210170FD205121017DDD2051210173F
:1024530029D30512101767D305121017529A0612C3
:102463001017418E06121017778E06121017C68E9C
:10247300061210171F9006121017CFE80412101738
:1024830000EA041210173CEA04121017F6EB0412C8
:10249300101720EC0412101799EE04121017D9EE3E
:1024A300041210176EF0041210170DF10412101716
:1024B30065F104121017EBF10412101723F2041242
:1024C300101765F204121017D6F30412101756F5FD
:1024D3000412101797F704121017C5F704121017F8
:1024E300F1F704121017FAF70412101750F8041238
:1024F3001017E0F8041210171EFC04121017A0FCAA
:10250300041210175DA30612101773A306121017F7
:10251300CBF405121017E0F40512101793F505120A
:102523001017D3F505121017ECF5051210171FF647
:10253300051210176CF605121017A0F605121017E6
:10254300E2F605121017D8F80512101774A1061237
:1025530010179B9C06121017FA9C06121017389D31
:1025630006121017799D061210179B9D061210175D
:10257300089E0612101768D30312101774D30312A0
:102583001017D6D303121017E0D30312101773D406
:1025930003121017AFD4031210176AD503121017C2
:1025A3007DD503121017E4D50312101774D6031246
:1025B3001017B8D60312101738D703121017E1D823
:1025C30003121017AAD9031210177ADB031210177C
:1025D30058DC0312101750DE03121017F2DE031239
:1025E300101789E30312101788E40312101715E577
:1025F300031210173AE503121017D4E5031210174C
:10260300F2E5031210170FE60312101783E6031205
:1026130010179FE603121017CCE6031210174DE8AC
:10262300031210176EE803121017EFE803121017C6
:1026330095E903121017DCE9031210174CEA031291
:102643001017E6EA031210175EEB03121017C9EB1B
:102653000312101768EC03121017D5EC03121017AE
:1026630010ED0312101784ED03121017DBEE0312A3
:1026730010176EEF0312101721F003121017A5F1B4
:10268300031210173EF203121017B0F203121017C1
:10269300ADF40312101759F60312101786F603123E
:1026A300101768F80312101757FA031210175DFB7F
:1026B30003121017008006121017728006121017EB
:1026C300808006121017918106121017D5DD0512AE
:1026D30010173EDE05121017BADF05121017D6DFEA
:1026E30005121017D8E1051210171BE20512101777
:1026F3002DE20512101737E20512101791E20512A9
:1027030010170080041210179B8004121017068103
:102713000412101704820412101783820412101774
:10272300C883041210177F84041210173186041211
:1027330010173D8704121017B18704121017CE87A4
:1027430004121017D288041210177B8A0412101770
:10275300258B04121017748E041210177B90041229
:1027630010170391041210175D9104121017B09102
:10277300041210173B9204121017C392041210177D
:10278300FF9204121017E299041210172F9C0412DF
:102793001017959D041210176F9E0412101711A2A3
:1027A300061210177C9F0612101709BA041210178D
:1027B30061BA04121017ECBA0412101765BC0412A4
:1027C300101745BD0412101702BE0412101719BECC
:1027D300041210176ABE04121017DEBE041210177B
:1027E3002ABF041210173DBF041210178FBF041223
:1027F3001017A7BF04121017E7BF04121017F3C076
:10280300041210174EC10412101775C104121017C9
:10281300C5C1041210179EC204121017E0C204129D
:102823001017FFC2041210174AC3041210176AC309
:10283300041210172CC40412101727C50412101702
:1028430082C504121017C2C504121017F5C504126D
:10285300101775C804121017A8C80412101750C90E
:102863000412101775C904121017F9C904121017AE
:10287300DACA0412101718CB041210177CCB0412F7
:10288300101730CC0412101733CC041210173DCCA0
:102893000412101747CC0412101763CC041210173C
:1028A300E3CC041210171CCD0412101738CD0412F8
:1028B30010175FCD0412101783CD04121017BECD6D
:1028C3000412101731CE0412101765CE041210171C
:1028D3006FCE04121017B0CE04121017E5CE0412F7
:1028E300101705CF0412101742CF0412101779CF17
:1028F300041210177CD004121017ABD10412101756
:10290300CAD104121017C4A106121017DCA10612B3
:1029130010178DE705121017CBE70512101764E89F
:10292300051210176FE905121017B7EB05121017F0
:102933004DC5051210179CC5051210175AC705126D
:10294300101715C90512101753C90512101748CAD5
:102953000512101753CB0512101775CB051210175C
:10296300BFCB0512101740CC05121017BBD40212AF
:102973001017DAD4021210175FD502121017A8D558
:102983000212101702D60212101774D60212101771
:10299300E1D60212101732D702121017A6D702126D
:1029A30010172DD802121017A5D802121017E2D84B
:1029B30002121017E4DC0212101737DF021210178D
:1029C300C9DF0212101740E00212101779E0021259
:1029D300101756E20212101765E40212101735E5BC
:1029E30002121017D9E70212101745E80212101746
:1029F30052E90212101776EC0212101786EC02123B
:102A030010171FEE02121017A3EE02121017C0EFD9
:102A13000212101704F0021210178DF00212101791
:102A230051F102121017F5F2021210175EF402129E
:102A330010179CF4021210174CF5021210170080A5
:102A430005121017A080051210170D81051210171B
:102A5300278105121017BB8105121017EC8205128E
:102A63001017338305121017928305121017408431
:102A73000512101703870512101723880512101764
:102A83009988051210177B8A051210171D8B0512E2
:102A93001017C28B05121017AA8C05121017F08D90
:102AA30005121017FE8E051210178B8F05121017C3
:102AB300AD9005121017FDD10412101762D2041243
:102AC3001017AAD204121017EED20412101749D30A
:102AD30004121017A6D30412101707D404121017E8
:102AE30061D404121017D0D504121017FAD50412AA
:102AF300101716D7041210172ED80412101756D811
:102B03000412101754D90412101765D904121017A0
:102B13007DD904121017A6DA04121017DADA041298
:102B23001017E3DA0412101706DB0412101736DB52
:102B3300041210175CDB0412101773DB0412101756
:102B430052DC04121017DCDC0412101717DD041218
:102B5300101796DD04121017D9DD0412101756DE74
:102B63000412101734E00412101734E10412101782
:102B73003FE20412101751E30412101777E4041212
:102B8300101785E40412101788E5041210172AE6BB
:102B93000412101770E60412101785E604121017BA
:102BA3008DE7041210172EE804121017E38A061299
:102BB30010179E8C06121017668D06121017BB8D08
:102BC30006121017EB9105121017849205121017B5
:102BD300799505121017A19605121017D9960512AB
:102BE3001017FA96051210171B9705121017559711
:102BF30005121017EC9A05121017E39E0512101711
:102C030050A105121017E5F80512101703F9051264
:102C1300101747F9051210176DF90512101794F9DB
:102C230005121017ACF905121017C4F90512101785
:102C330067FA05121017A9FA05121017CBFB051234
:102C43001017D4FB05121017DDFB05121017E6FB56
:102C530005121017F0FB0512101734EC05121017AC
:102C630028F00512101736F0051210173BF0051265
:102C730010173693061210177DA30612101760A1C2
:102C830005121017F4A1051210172EA20512101722
:102C930066A205121017CBA2051210174BA305123B
:102CA300101708A306121017A2F0051210175DFFE4
:102CB3000512101787FF0512101781FF0212101754
:102CC300D1A206121017C5FF0412101734A306125F
:102CD30010179BA30612101761A00312101725A04B
:102CE30003121017A19F03121017739E03121017DC
:102CF300639E03121017D19D03121017B59D031283
:102D03001017979D031210177F9C031210175A9CDC
:102D130003121017A0A7031210177CA70312101792
:102D23006A9B03121017CF9A0312101771A703128D
:102D3300101767A7031210175D9A03121017389A1A
:102D430003121017549903121017709803121017D7
:102D5300869503121017439403121017AA910312B6
:102D630010176591031210170B91031210176C9033
:102D730003121017179003121017448F0312101722
:102D83007E8E03121017428E03121017D58D031275
:102D93001017CD8D03121017428D03121017D28C0A
:102DA30003121017238C03121017188C0312101719
:102DB300098C0312101702A703121017E88B0312D2
:102DC3001017F7A603121017CFA603121017C4A6E5
:102DD3000312101757A6031210174DA6031210174C
:102DE30034A6031210172AA60312101720A60312E3
:102DF3001017B48B03121017888B031210175A8AFB
:102E0300031210174E880312101716A60312101779
:102E13001F8803121017038803121017AD870312BC
:102E23001017748703121017EC86031210170CA6E1
:102E330003121017A0860312101710DD05121017C6
:102E43005986031210178C8503121017108503126D
:102E53001017688403121017C183031210176383BA
:102E630003121017388303121017E9820312101785
:102E7300AB820312101789820312101766820312A2
:102E830010174D82031210170582031210174F817A
:102E930003121017C38003121017F8A5031210179B
:102EA3005780031210170080031210175095060065
:102EB300000080FBE4730000030020010F84000086
:102EC300000020010E840000040042019C820000E7
:102ED30005004201F880000006004201E78000007F
:102EE300070020011184000010004203BF1E0000F0
:102EF30009004201CA1D000011002003FE1D00004D
:102F030012001003D01E010020002001D21E010078
:102F130021002001D11E030000002103FF1D030037
:102F230001002001011E050B000021010000050B1B
:102F3300010021010000050B000123010000050B26
:102F4300010123010000050B020123010000050B11
:102F5300030123010000050B040121010000050BFF
:102F6300050121010000050B060121010000050BED
:102F7300070121010000050B080121010000050BD9
:102F8300090121010000050B0A0121010000050BC5
:102F93000B0121010000050B0C0121010000050BB1
:102FA3000D0121010000050B0E0121010000050B9D
:102FB3000F0121010000050B100121010000050B89
:102FC300110121010000050B120121010000050B75
:102FD300130121010000050B140121010000050B61
:102FE300150121010000050B160121010000050B4D
:102FF300170121010000050B180121010000050B39
:10300300190121010000050B1A0121010000050B24
:103013001B0121010000050B1C0120010000050B11
:103023001D01280100008F000100D41D870001004D
:10303300C81D8A000100C91D8C000A00CA1D8B002F
:103043002C01D606350004004F1E25000200531E36
:1030530026000200551E27000200571E280001000B
:10306300611E29000100621E84000400631E8600A5
:103073000100671E2A000100681E2B000100691E63
:103083002C0001006D1E2D000800B11D2E00010053
:103093006E1E2F0001006F1E30000100701E3100F4
:1030A3000100711E32000100B91D33000100BA1D79
:1030B30034000100721E36000100BB1D3800010000
:1030C300731E390001006C1E830002008A1E630018
:1030D3000100881E640001006A1E650001006B1E6A
:1030E3006D000100C61D71000800A91D66000100E6
:1030F300891E43000100791E440002007A1E450028
:1031030001007C1E460002007D1E47000800BE1D14
:10311300480001007F1E4B000100801E04000100D7
:103123008C1EA10001008F1E370001008E1E880037
:1031330001008D1E3C000100BC1D3D000100741EFA
:1031430049000200811E67000100C71D4D000200F7
:10315300831E4E000100851E4F000200861E3E00A6
:103163000100781E51000100751E52000100761EF9
:1031730053000100771E54000100BD1D0000000034
:1031830000000001363601010001020100010301C4
:1031930000010401060605020000070100340801CE
:1031A300000F090401010D0100FF0E0800001702C2
:1031B3000000190100FF1A0100011B0100FE1C01A0
:1031C30000081D0200001F0100012001000121026F
:1031D30000002301000F2402000026010001270143
:1031E3000008280200FF2A0100072B0102402C01DE
:1031F30000002D0100012E0100012F0100FF30010D
:103203000B1D310800003A0100083B01000F3C018F
:1032130000013D0100FF3E0400004204000046049B
:1032230000004A0400004E0400005204000056044B
:1032330000005A04000000002101000100210200E7
:1032430000012366000101236700020123680003D4
:10325300012369000401216A000501216B000601B5
:10326300212C010701212D010801212E0109012132
:103273002F010A012130010B012131010C0121C869
:10328300000D0121C9000E0121CA000F0121CB004D
:10329300100121CC00110121CD00120121CE001318
:1032A300012132011401213301150121CF0016013F
:1032B300213401170121D000180121D10019012166
:1032C300D2001A0121D3000020202020202020201A
:1032D30020282828282820202020202020202020C3
:1032E30020202020202020208810101010101010E3
:1032F300101010101010101004040404040404042B
:1033030004041010101010101041414141414101BB
:10331300010101010101010101010101010101019A
:1033230001010110101010101042424242424202A9
:10333300020202020202020202020202020202026A
:103343000202021010101020010371030103010394
:10335300010301030103220302030103100300031A
:103363000003000300030003000300034203000300
:1033730024030603000300030403120325032303AA
:10338300250323030403040300030003000344038E
:1033930000030003230300036503210035038103B6
:1033A30000030503000300030003000325032303B5
:1033B3000302710230016002110270020102020273
:1033C30002028002100261023A00410063027302AA
:1033D300720262024302000213023800000200027A
:1033E30004021202000200020002000204020402AC
:1033F300370037003C024402000239000002000299
:103403006502000235028102000205028202830284
:1034130000020101710101010101110101013101E9
:10342300010101018001100161013B0014006301EE
:1034330073017201620143010001130106013D01A1
:103443003500040112010001000100010001040123
:103453000401330133013C01440132013600000110
:1034630000016501000135008101000105018201B0
:10347300830100010300710030016000110070003E
:10348300310220035004800010006100000014008A
:103493006300730072006200430000001300060023
:1034A3000000000004001200000000000000000003
:1034B30004000400370037003C0244000000000011
:1034C30000000000650000003500810000000500D9
:1034D300000083000000030471040204600411046B
:1034E30070040204020401040204100461040004D1
:1034F3001404630473047204620443040004130495
:10350300060400040004040412040004000400047C
:103513000004510464000004000400044404000493
:1035230000040004000465040004350481046400FD
:1035330005040004830400043600010006000000B3
:103543000F0000000000000000000000000003FF67
:10355300FF00000403FFFF0000FFFF0FF40100055D
:10356300C4040320000100000B0000000000000061
:103573000003010F00000000000000000000000035
:103583000000000000000000000000000000000038
:1035930000000000000060269C26662694256C2609
:1035A300A2266C26AE26722694256C26A2267826A1
:1035B30094257E269425842694258A269425902670
:1035C30094259626942500000000000000000000CA
:1035D30000000000000000000000000000000000E8
:1035E30000000000000000000000000000000000D8
:1035F30000000A00000002000000040000000800B0
:1036030000001000000020000000400000008000C7
:103613000000000100000002000000040000000898
:103623000000001000000020000000400000000027
:103633006E2A1300CC291F00D2291F80D82901002C
:103643006E2A020090290300962904009C29050094
:10365300A2290600AE293600C029FFFF0000015A47
:1036630017068A170884170B9617107E1402601723
:103673000578170766170C42170D4E17646E2DFF5A
:10368300000007ECFDFDFDECDCDCCCBCACAC9C9C91
:103693008C7C7C6C6C5C5C5C4C4C3C3C2C2C1C1C17
:1036A30003EAF5E5D5D5C5B5A59595858575756504
:1036B30065555545453535252515150500160F0066
:1036C300000B150B020002220F3300000E0103054D
:1036D30007090B0D0F00020406080A0C0D5A69674F
:1036E300426565416C6C69616E63653039303017D2
:1036F300181921301B1D1F3000034A49434E181A65
:1037030025050200393D3F373C3C362C442D3030F3
:1037130016181920231A1C1E300001191618161624
:10372300182303000C0E020B040B0A0708000F02F8
:10373300040201010101090200BE040AE8030000BA
:103743007F0000000000E8030E0008090028000ABB
:10375300FF1E1E08050C10040403100903010C05C9
:1037630008152E040CE004123FE8A2E792AF22E40E
:10377300F0A3F0A3F022A3123772A3F0227F0C026E
:103783000D5FE0F508E4F509F50AF50B227401F085
:10379300900CDBE0640F2274091210627F04020DA7
:1037A3005FA3A3E024F5C3941322900CFB1262CE13
:1037B3007A147B0022C082C083900412741AF0A38F
:1037C300741BF0A3742CF0A3741BF0900416740202
:1037D300F0A3741BF0A374FCF0A3741AF0A3743861
:1037E300F0A3741BF0A3743EF0A3741BF0A3743214
:1037F300F0A3741BF0A374EAF0A3741AF0900422EC
:10380300740EF0A3741BF0A37414F0A3741BF0A341
:103813007408F0A3741BF0A37444F0A3741BF0901A
:10382300043312585B6006125AC512247490043094
:10383300124F917408F0A3E4F0A3F09004D3F09036
:103843000435F07C0BFDF97A367B041223CC7C0B18
:103853007D0079007A417B041223CC024F9A74F7DE
:10386300120A5674F71210E0EAFEEBFF124DB87419
:103873000512392E7403F0EE2402FAE43F123908DC
:10388300242DFCE43FFD8C828D83123A46123917B6
:10389300600812419074FFF0A3F0EE242BE43F1C68
:1038A3001CFD8C828D83A3E0C0E08A828B83124D42
:1038B300C9D0E0123917888289831255C1240312B3
:1038C300609812256474081213697403F0900CF065
:1038D300120E2C74021210C07903EEFAEFFB121CC5
:1038E300D07402121062E9F5087007EEFAEFFB12CA
:1038F3001BBCA90874090241A0F582E43FF58312B9
:103903006D031255B6FB8A828B83123926E8F0A326
:10391300E9F0EE221262EC123926E8F0A3E912680C
:1039230068E022123A118A828B8322F0A3E4F01218
:10393300393622EE240DF582E43FF5832274F11229
:103943000A56EAFEEBFF8C088D09890A123A1B8A94
:10395300828B83123A11740F121369123A34E824DA
:10396300FF18E934FFF988828983E50A123A269021
:103973000CF5123A23900CF4123A237411121369C2
:10398300123A34EE2404FCE43FFD880B8A828B83D5
:10399300E0F50C8C828D83E0250CC3950B1262E855
:1039A300E8F0A3E9124D25A3A3A3A3A3A3A3A3E034
:1039B30064037008125081F0A3E48003123D2712C0
:1039C30039317409F0750C36750D04750E00780CD9
:1039D300121030123D1B1223C07403121062750CB7
:1039E300FF750DFF780C121034AC08AD097903EEA6
:1039F300FAEFFB121CD07402121062E9F50870078B
:103A0300EEFAEFFB121BBCA9087F07020D5FE0244F
:103A1300FFF8A3E034FFF922EE2402FAE43FFB228D
:103A2300123A46123A2A22F0E824FF18E934FFF941
:103A330022E0F50CA3123A46123A2A88828983E5DA
:103A43000CF022E08882898322C082C083900452D2
:103A5300E0C39408400474078001E08A828B83F0FA
:103A630033333354F8F9024F9A74F0120A56EAFECC
:103A7300EBFF890C8C0E8D0F750A00A2AFE433F5B2
:103A83000BC2AF90044C803F123B545037123B653E
:103A930064037030EE24F9FEEF34FFFF850882855E
:103AA3000983A3A3E02405FCA3E03400FDEEFAEFB1
:103AB300FB122564EE24FF1EEF34FFFF7410250A6A
:103AC300F50A150C124CF2126CFFE50C6006E508C2
:103AD300450970B4E50BA2E092AFA2AFE433F50B56
:103AE300C2AF90044C802C2402FAE43509FB8A828D
:103AF3008B831262D72406F582E438F583123B7276
:103B03008A828B83123B5AA3A3123B72050A150CBC
:103B1300124CF2124D076022123B65640270F112DF
:103B23003B54E50840C1123E55A2E550E3850E82A1
:103B3300850F837401F0E50C70D6E50BA2E092AF1C
:103B43008E828F83E50AF0EE24FFFAEF34FFFB80C9
:103B530035123E60A2E622123B5E221266CCA3A37C
:103B6300A3228508828509831266C6125D0022E0BE
:103B73008E828F83F0EE24FF1EEF34FFFF22121D8F
:103B83009C74041210627F08020D5F74EC120A56D3
:103B930074F51210E089138A128B0F851882851928
:103BA30083E4F0041210B8121ACCE9F8900CDAE0AE
:103BB300292434F508FA7B001223DE8A0A8B0BAE24
:103BC3000AAF0BEE4F7003023D0FEE2402F50AE439
:103BD3003FF50BA808EE28F8E43FF9850A82850B28
:103BE300831239102404F510E43FF511851082F592
:103BF30083E4F0900CDAE0FCF8C3E498F895E0F97C
:103C0300850A82850B83E028F508A3E039F509903E
:103C13000CD8125F90750E00780C1210307D00AA3C
:103C230008AB091223C07403121062AC18AD1974E7
:103C330001121369E0F9E50824FFFAE50934FFFBF3
:103C4300121AD28A828B83E4F0EA24FFF508EB345C
:103C5300FFF509E50FC454F0F99004D4E0C43333FD
:103C630054C0F8900CD4E0A2E0E433131348494461
:103C73000F123D2FE512C454F045138508828509C0
:103C830083F0A808850A82850B83E0FA8510828574
:103C93001183E02AC398F0850A82850B83E8F0A399
:103CA300E509F0123D27123931E4F0740A12136961
:103CB300E4F0750841750904F50A7808121030120A
:103CC3003D1B1223C0740312106285188285198369
:103CD300E06009EE240E124E4E4408F0121CB8E9BF
:103CE300F9E4F508F509780812103474041210C0C9
:103CF300EEFAEFFB121CD07402121062E97006EEAA
:103D0300FAEFFB800BEEFAEFFB1223E47A007B0061
:103D1300740B1210620237807C0B7D00EE2418FABC
:103D2300E43FFB22124DBCE4F0A322E08508828528
:103D33000983123D3922F0125F642274F3120A568A
:103D43008A0A8B0BA2AFE433F50CC2AF750800757A
:103D5300090090044C802C123F7C5024850A8285F4
:103D63000B83A3A312712C8E828F83A3A3125AC831
:103D7300121CBEE9600A123DA2C2E6F08E088F094A
:103D8300123F7112422A70CFE50845096006123EC0
:103D93005CD2E6F0E50CA2E092AF7F05020D5F1264
:103DA3003DA622125F7DE02274F0120A56EAFEEB72
:103DB300FF8C0C8D0D750E00A2AFE433F50FC2AF6F
:103DC30075080075090090044C8020850A08850B4E
:103DD30009123E5CD2E4F0E508123E55D2E7F0E565
:103DE3000A24FBF582E50B34FFF583E0F50AA3E033
:103DF300F50BE50A450B6043E50A124BDD350BF580
:103E030083E0A2E750D9850A82850B83A3A3120E10
:103E13002CAC0CAD0DEEFAEFFB121CC474021210A5
:103E230062E960BBE508450960A1E508240D123E7F
:103E33006864017006123E71D2E4F0E50FA2E092CD
:103E4300AFE50845096006121BB6750E01A90E02FF
:103E53003B89124C07123E6B22123E6022E5082476
:103E630011123E6822F582E43509F583E0228508C4
:103E7300828509831266C6E02274F2120A5674FE22
:103E83001210E0750C00750D00851882851983E406
:103E9300F0A3F0A2AF33F50AC2AF90044CE0FEA347
:103EA300E0FF8035EE24FBF582EF34FF126CFD78E2
:103EB3000C121034EEFCEFFD7A4C7B0412241474C4
:103EC30002121062EEFCEFFDAA18AB19122402AE27
:103ED30008AF09900452E014F0EE4F6027123F7CC4
:103EE300501DEE240BF8E43FF988828983E024FF18
:103EF300F0A3E034FFF08882898312585B60A51237
:103F03003F6D8099E50AA2E092AF900452E06031E0
:103F1300900CDBE0640F60069004D3E070237A2AF0
:103F23007B04121DA890836B120E287A2A7B04123D
:103F33001D9C7404121062800874F01251B8121B95
:103F4300AAAA18AB191224088A0A8B0BAE0AAF0B64
:103F5300EE4F6013121ADE123DA2A2E28E828F830D
:103F6300A350D674E980D40242328E0C8F0DEE2416
:103F7300FBF582EF34FFF58322123DA6A2E72274FC
:103F8300F7120A56EAFEEBFF121ADE124DC6122E84
:103F9300B7E96401900CF7700AE02401F8A3E03458
:103FA300008004E0F8A3E0F91254141257B390040C
:103FB30052E07021900CDBE0640F70197A2A7B04C5
:103FC300121DA890836B120E287A2A7B04121D9C63
:103FD3007404121062A9A8C2AF900452E004123F05
:103FE300E8A2E7800DF0E9A2E7E433F8E922E50867
:103FF300A2E092AF02525474F7120A56EAFEEBFFA4
:1040030012402FF0121ADEEEFCEFFD7A4C7B041205
:10401300240EA9A8C2AF900452123768900CDBE0BB
:10402300640F70057908121C70025254123DA6C227
:10403300E42274F7120A5674EA1210E0EAFEEBFF68
:10404300900CD4E060408518828519837401F012C6
:104053001369E4124107121369AA82AB8312256420
:104063008E828F83123E77C0E0740A121369D0E008
:104073001262FD740B121369AA82AB83121CE8AAA5
:1040830018AB19122C5A74160241A074F7120A566F
:10409300EAFEEBFF121AC0E9F974DC69601E74DDF5
:1040A30069601974E469601474F369600F74DE69FC
:1040B300600A74DF69600574DB697007EEFAEFFB71
:1040C300121C7602525474F7120A5674EB1210E063
:1040D300EAFEEBFF851882851983740612410712E5
:1040E3001369AA82AB83122564126302740A121342
:1040F30069AA82AB83121CE8AA18AB19122C5A7452
:10410300150241A0F0EE2413FCE43FFD7402227477
:10411300F7120A5674F71210E0EAFEEBFFEE242DB5
:10412300124E4E60651249DFAA18AB19122564744A
:10413300081213697403F0900CF0120E2C124190C4
:10414300120E2C900D03E0F974041210C0EEFAEF76
:10415300FB121AC67404121062E9F974DC69602355
:1041630074DD69601E74E469601974F36960147422
:10417300DE69600F74DF69600A74E869600574DBE7
:10418300697007EEFAEFFB121C760238F7EE124164
:104193009522242BF582E43FF583227403121062E7
:1041A30002525474F2120A568A088B09750C007570
:1041B3000D00750AE7A2AFE433F50BC2AF90044CD0
:1041C3008003123F6D12422A6035123F7C50F31276
:1041D3004E4B640170ECEE242FF582E43F1243D979
:1041E300E06870DE780C121034EEFCEFFD7A4C7B45
:1041F300041224147402121062900452E014F0E5C5
:104203000BA2E092AFEE4F6013EEFAEFFB121ADE51
:1042130079F0EEFAEFFB121C76750A00A90AAA08D8
:10422300AB09121C76800DE0FEA3E0FFEE4F227473
:10423300021210627F06020D5F74F4120A5674F7BD
:104243001210E0EAFEEBFF8E828F83A3E064F3702B
:10425300030242E68E828F83A3E064DF700302428F
:10426300E68E828F83A3E064E860788E828F83A3D7
:10427300E064DB606E121B20E9F508705EEE240E2D
:10428300124E4E60561242F0121B68EA4B604C7499
:10429300081213691242FA120E2C7508FF7509FFF2
:1042A30078081210348E828F83A3A3A3A3A3A3A39E
:1042B300A3E0F974041210C0121AC6740412106237
:1042C300E9F50874F36508601274DF6508600C741F
:1042D300E86508600674DB6508700F8E828F83A320
:1042E300E508F0EEFAEFFB121B2C02379AEE240FCF
:1042F300FAE43FFB7909227402126AC574FFF0A342
:104303001243072212430B221255CAA3A32274F5A8
:10431300120A568A088B097E008A828B83A3A3A381
:10432300A3A3A31237A440027EE88A828B83A3A3AC
:10433300A3A3A3A3A3A3A3A3E0C3941040047EE871
:1043430080138A828B83A3A3A3A3A3A3A3A3A3A35F
:10435300E0640F600A9004B0E0540870027EE8EA5B
:10436300240BF582E435091243D9A3A3A3A3A3A382
:10437300A3A3E0C398500CEA240B123E68640F60B9
:10438300027EE8900CF4E0F47003A3E0F470027E84
:10439300EC7A237B0012246E900433125AD89004D3
:1043A3003312585B6029850882850983A3A3A982F8
:1043B300AA8389088A09750A0078081210307C23B9
:1043C3007D00125AC51223C0740312106280027E4C
:1043D3001AEEF9026C66F583E0F88A828B83A3A355
:1043E3002274F5120A56EAFEEBFF8E828F83A3A393
:1043F300A3A3A3A3A3A3E0900CDB1269A8900CF6DC
:1044030012698E900CD61269AD9004D4F0F9122281
:104413003A9004D4E06018EE2404FAE43FFB7950A8
:10442300122222EE2406FAE43FFB79E112222290C3
:1044330004D3123790600474018002740090043531
:104443001269941210307C0B7D007A367B041223A0
:10445300C07403121062EE2418F508E43FF50978DE
:10446300081210307C0B7D007A417B04026C5E7471
:10447300F7120A56EAFEEBFF8E828F83A3E07006E3
:10448300125AC5121B268E828F83742C1251B812B6
:104493001C8202525474F7120A56EAFEEBFF900490
:1044A3003312585B600D125AC5900433E4F0A3F045
:1044B3001224748E828F8374081251B8122C5A02FC
:1044C300525474F6120A569004D3E06013900435E4
:1044D300E0700D1244E6121AD8EA4B6003121BBCBB
:1044E300026608900CD6E0FB900CF6E0FA900CDB29
:1044F300E0F92274F4120A5674E71210E0EAFEEBB4
:10450300FF750B018E828F83A3A3A3A3A3A3A3E0B1
:10451300A2E25068EE242BF582E43F12712A124581
:10452300B4121AE4E970559082C0E0640170057515
:104533000B0080481245BC1210307C0B7D007411B7
:104543001210B81223C07403121062121CB8E9FAD5
:10455300740E1210B088088909780812103475088F
:10456300307509007808121034124190120E2C1283
:10457300629E7901121CD674061210628518828518
:1045830019837410124107121369AA82AB8312258F
:10459300581241901262CA740B1213691257B37402
:1045A3000D121369E50B12502B122C5A7419023792
:1045B3009CEE2413FAE43FFB22EE240812699C22AA
:1045C300C082C0839004D4E06003121D2A024F9A74
:1045D300C082C0839004CB7412F0A37404F0A3745C
:1045E30016F0A37404F0A37422F0A37404F0901ED5
:1045F3002974D9F0A37434F09004B574BAF0A37499
:104603001AF090045774F0F0A3741AF090045974DC
:10461300F6F0A3741AF09004B0E044028001E4F0D1
:10462300024F9AC082C083EAFCEBFD790302562C49
:10463300C082C083EAFCEBFD790502562CC082C020
:10464300837908026799C082C08374FE1210E090D8
:10465300045F74A4F0A3741BF0900461749EF0A330
:10466300741BF0800D7A4C7B041224081250211223
:104673001CA690044C12585B70EB90044E12585BCE
:10468300600F7A4E7B04122408125021121CA6805C
:10469300E990044CE4F0A3F09004521237737402CF
:1046A30080027411121062024F9A74F6120A56E9CC
:1046B300FF740629F582E43437F583E493FEFA7B2D
:1046C300001223DEEA4B6011EA2E1257A98A828B6D
:1046D30083A3A3A3A3E4F0802C7A027B001223DE3E
:1046E300EA4B601D74F02FF582E43436F583E493CE
:1046F3008A828B83F0A3741AF09004ABE0F912233F
:10470300EA7A007B00026608E9FC740629F8EAA24B
:10471300E0501EE875F00A84E5F0F96014740A2885
:10472300C399F8E9C394054004740A28F8740B2864
:10473300F8ECC3941340047A1480027A06EA2879C9
:10474300002409F85001097A0A7B001207FFE8F9EF
:10475300021014C082C0839004B0E05402600A12B5
:104763002C60E96004790180027900024F9AC082CB
:10477300C0839004B0E054026016900452E0700CC1
:10478300125858600BE0C8124CFF500479018002A4
:104793007900024F9AC082C0839082BDE0F89004F2
:1047A30054E0C39850051223DE80047A007B000294
:1047B3004F9AC082C083121CA67900024F9A74F7E5
:1047C300120A5674FE1210E0851882851983EAF0E6
:1047D300A3EB124930A3A3A3A3A3E0600A14606070
:1047E30024FE60690248B1900CDBE0640F6018128C
:1047F3001C7CE97012851882851983125AC89004AB
:104803005B124DC9122EB7900D03E0C0E0851882EC
:10481300851983125594D0E01249307414126AC179
:1048230012712C7A4E7B04122402A8A8C2AF900402
:1048330054E004125ADE7920121C7074020241A063
:104843008518828519831266CE741580D0851882E7
:10485300851983124913A3A3E06053851882851930
:1048630083E02402F8A3E03400F988828983126E7E
:10487300FFE0C0E0851882851983E0FCA3E0CC2427
:1048830006F582E43CF583D0E012630A88828983CB
:10489300125AD8851882851983124BFB8518828595
:1048A3001983601312491860051249204043AA185E
:1048B300AB19121CA6808412491860F212492050C9
:1048C3001C124D0FFA85188285198312491AF87440
:1048D300311257A43437F583E4936A601485188240
:1048E300851983124918640870C4124D0F64087047
:1048F300BD124D0F14124938240AC0E08518828571
:104903001983124DC9D0E012493804024820E0F857
:10491300A31255E122E0F8A3E012493F2285188251
:104923008519831262DB124940C3940A2212494A51
:10493300F58388822212494A12493F22C82406F588
:1049430082E438F583E022126AC5E0F8A3E022C0CE
:1049530082C08390046312585B60081266CF122EE4
:10496300B780027900024F9A74F7120A56EAFEEBF7
:10497300FF1239367401F0EE2430F582E43FF583FB
:104983001260381239102432124E4EC0E0EE241356
:10499300F582E43FF583D0E0F0EE2433124E4EC0AF
:1049A300E0EE2414F582E43FF583D0E0F0EE242C0E
:1049B300F582E43FF583120E2C1249DFEE242E120A
:1049C3004E4EF9121CD07402121062E9F5087007FA
:1049D300EEFAEFFB121BBCA908025254EE2423FC8F
:1049E300E43FFD22C082C083121C7CE9600479206D
:1049F30080027901024F9AC082C083EA124BDD1212
:104A03004A9ED2E0024622C082C083124A986401C1
:104A13007011124AA3400C8A828B83A3E0F9121C03
:104A230076806FEA2410124A9BA2E650128A828B88
:104A330083A3E0F990045D124DC9122EB78053127F
:104A43004A986401700D124AA350088A828B8374BA
:104A53003080368A828B83A3E0641B8A828B8370C7
:104A63000474228024A3E0700D124A98F874111282
:104A730057A43437800B124A98F874F01257A434B1
:104A830036F583E4938A828B83F09004ABE0F912CA
:104A930023EA024F9AEA240DF582E43BF583E022F0
:104AA300EA124C073BF583E0A2E32274F7120A569D
:104AB300E9FE1258587003024BD4EE6011741B6E5A
:104AC3007013E0C8124BD764057003024B9F126644
:104AD300BEE4024BA374E96E7062124BF3700B12C7
:104AE3002C66E96005124C0D606279EE1221A490E8
:104AF3000455124BF0900455603B124C1090045532
:104B0300700B124BF014F012235A024BD4124BFBCE
:104B1300C2E7124D1B124BD76403700C1262D412FE
:104B23004BDD124945D2E2F079ED1221A4124BE399
:104B3300122EB780751266C174E9806474E16E70D9
:104B43003E122C66E96055124C0D7050900CFDE03E
:104B5300C0E01262D42412F582E438F583D0E0F089
:104B6300900CECE0C0E0900455124911124911D0A9
:104B7300E0F0900CECE004F07901122342805274CF
:104B83001C6E7018900455125AC8900465124DC9D2
:104B9300122EB7900455E4F0A3F080351266BEEEF2
:104BA300F0900455125AC8121BAA1262D41262A6BC
:104BB300E054806010900D03E0F912225E900D0224
:104BC300E0F9122252900455E4F0A3F07910121C7C
:104BD30070025254240D124942222411F582E42218
:104BE300900455125ACC9004591266C822E0F8A3D7
:104BF300E0C8241212494222E0F8A3E0C8124C078D
:104C0300124945222410F582E4229004551262DBF6
:104C13001262AAE054042274F4120A56750A00754B
:104C23000B00A2AFE433FFC2AF1258586003024C2B
:104C3300D7124DC6122EB7E94410F890044C8009E0
:104C430085080A85090B124CF2124D077003024CBA
:104C5300D7123E5C586870E8780A121034AC08AD7D
:104C6300097A4C7B041224147402121062900455C6
:104C7300E508F0A3E509124D1B124CFF405D9004BB
:104C830053E014F0EFA2E092AF900455E0240EF845
:104C9300A3E03400F9880889098882F583125AC889
:104CA300900455124D15F9121B6EE9900450F01241
:104CB3004D23E0548090045560261262D7241312CA
:104CC3004942F912225E1262D42414124942F912A3
:104CD30022528018EFA2E092AF801190045280A17B
:104CE300124BFBA2E1B3E433F912234202379FE5EF
:104CF3000824FBF582E50934FFF5832224111249C8
:104D030042A2E722126D03E5084509228518828530
:104D13001983123B5EA3E022F09004551262DB225A
:104D2300A3E4F08508828509832274F7120A56EA00
:104D3300FEEBFF121CA0EE2410124E4EA2E3400C19
:104D4300124E4B640170059082BB80039082BCE0DD
:104D5300F9EEFCEFFD7A4C7B0412241AE96046EE6F
:104D6300FAEFFB90045F124DC9122EB7EE240E1218
:104D73004E4E54047020A8A8C2AF900453E004120E
:104D83005ABEFAE8A2E792AF124DB8A3E0540170FD
:104D930021121BB6801CEEFAEFFB900457124DC98B
:104DA300122EB7800D8E828F83A374F11251B81225
:104DB3001BAA025254124DBC22EE240EF582E43F8C
:104DC300F583229004611266C822C082C083121B3D
:104DD300B6024F9A74F7120A56EAFEEBFF79009077
:104DE30004B0E05402700CEE2430124E4E540460B2
:104DF3000279E89004B0E05460700CEE2430124E57
:104E03004E5402600279E88E828F83A3A3A3A3E0AA
:104E1300F89082C1E0C398500279E8EE242E124E36
:104E23004E700CEE242B124E4E700479F5800BE974
:104E33007005121B98E9F9E96007EEFAEFFB121C03
:104E43007602525434FFF509EE240DF582E43FF562
:104E530083E022C082C0838A828B83740DF0122C7C
:104E63005A024F9AC082C0838A828B83E4F0A3F0F4
:104E7300EA2430124A9B54049082BB7012E0F890EB
:104E83000453E0C398401279F1121C76024F9AE062
:104E9300F8900452E0C39850EE9004ABE0F912236B
:104EA300EA80E974F6120A56E9FE244CFAE4340067
:104EB300FB1223DEEA4B6012EE8A828B83A3A3A349
:104EC300A3F0EA244C1257A980047A007B000266FF
:104ED30008C082C0839004677404F0A3741CF0A319
:104EE3007434F0A3741CF0A3740AF0A3741CF0A32D
:104EF3007410F0A3741CF0A3742EF0A3741CF0A31D
:104F03007422F0A3741CF0A3741CF0A3741CF0A30C
:104F1300743AF0A3741CF0A37440F0A3741CF0A3C0
:104F23007446F0A3741CF0A37452F0A3741CF0A392
:104F33007416F0A3741CF0A374FEF0A3741BF0A307
:104F430074F8F0A3741BF09004837428F0A3741C0A
:104F5300F0A3744CF0A3741CF0A37460F0A3741D4D
:104F6300F0A37458F0A3741CF0A3745EF0A3741C34
:104F7300F09004A7E4F09004AAF0900493124F91E8
:104F83007402F090049C124F9174010246227470D3
:104F9300F0A3741CF0A322D083D08202101474F502
:104FA300120A5674F11210E085188285198374026F
:104FB300F07401121369E9F060047AFF7BFF740255
:104FC300121369125AD875089F750904750A007877
:104FD300081210307C0B7D007407121369AA82AB90
:104FE300831223C07403121062AA18AB19122C5A2D
:104FF300740F026C6374F7120A5674FD1210E08585
:105003001882851983740AF07401121369E9F07424
:1050130002121369EA12502B122C5A02419E851870
:1050230082851983EAF0A3EBF0AA18AB192274F670
:10503300120A5674F71210E0EAFEEBFF12508112C7
:10504300392E74021251A9AA18AB19122558EE244D
:105053002E1238FC24301260A51210347402121080
:10506300C079831A1AEFFB121CD07402121062E982
:10507300F5087007EEFAEFFB121BBC026601124D36
:10508300BC74012274F0120A56126B4C1212FA7895
:1050930008790C1208EF780812102C7A967B040218
:1050A3003B8174F4120A5674C61210E0900CDBE0D4
:1050B300640F6010851882851983742E12502B1289
:1050C3001C8280277A8D7B04121DA81237AD12082B
:1050D3000788088909E4F50AF50B780812102C7A79
:1050E3008D7B04121D9C7404121062743A02379C67
:1050F30074F5120A56EAFEEBFF8E828F83A3E0F863
:105103006003025192EE242D124E4E64026007E0BA
:105113006403600278E8EE2423F582E43FF583120A
:1051230037A6400478E8806AE87064EE2423FAE442
:105133003FFB79E1122222EE242EFAE43FFB795061
:10514300122222EE242D124E4E6402700E1262942D
:105153001262CA900CEA1257B38012900CEA74FEE2
:10516300F0A3041251A97AE17B0C122564EE2418F2
:105173001245BF1210307C0B7D007A9F7B041223F3
:10518300C07403121062EEFAEFFB121BF2E9F8E8A7
:105193006011E88E828F83A31264F674171251B8DC
:1051A300121C82026C66F0EE2425FCE43FFD228E85
:1051B300828F837429F0EEFAEFFB2274F6120A56FB
:1051C30074F71210E09004AAE0703B7401F0F91236
:1051D300230CAA18AB19121CB275089F7509047821
:1051E30008121034750801750900780812103490FC
:1051F3000CF0120E2C74061210C07A037905121CDF
:10520300D6740612106202660374F7120A56EAFE97
:10521300EBFF79011223128E828F83E064207004E6
:10522300A374EBF09004AAE0A2E25003C2E2F0E020
:10523300A2E15008125456121BEC800C8E828F830D
:10524300742A1251B8121C828007EEFAEFFB121D6A
:105253001E7F01020D5F74F4120A5674FE1210E0F1
:10526300EAFEEBFF79011223127A8D7B04121DA84B
:105273007A967B04121DA81255A08518828519837E
:105283001255D4E0F50B700FAA18AB1979531222FB
:1052930022126CF31222221245BC1210307C0B7DB9
:1052A300007A9F7B041223C0740312106285188254
:1052B300851983125AC8A90B121BE69004AAE0A20F
:1052C300E1500C7A008E828F83A3E0F9121BEC90DD
:1052D30004AAE4F0740202379C74F7120A56EAFE39
:1052E300EBFF8E828F83A374EBF09004AAE0A2E11C
:1052F30050077A0079EB121BECEEFAEFFB121C223B
:1053030002525474F7120A56EAFEEBFF7901122394
:10531300127A8D7B04121DA87A967B04121DA89025
:1053230004A7E4F09004AAF07AFF7BFF8E828F83B8
:10533300A3E0F9121BE602525474F7120A56EAFE6E
:10534300EBFF121C1C02524D74F7120A56EAFEEBD5
:10535300FF79011223128E828F83A3A3A3A3E0609C
:10536300047400800274EB12539D5003C2E2F0E018
:10537300A2E1500812549F121BEC8014A2E05010BB
:105383008E828F83742AF0A374EB1251B8121C829D
:10539300EEFAEFFB121BCE0252548E828F83A3F0E0
:1053A3009004AAE0A2E22274F6120A56EAFEEBFF88
:1053B3009004AAE0D2E1F0790112230C8E828F834C
:1053C300A3E0703C121CB8E9FAEE240DF508E43FA3
:1053D300F509780812103475080175090078081268
:1053E3001034125414120E2CEE2402FCE43FFD7907
:1053F30005121CD67406121062E98E828F83A3F005
:105403008E828F83A3E060067A00F9121BEC02669A
:105413000812541822EE240BF582E43FF58322741C
:10542300F7120A56EAFEEBFF79011223128E828FDE
:1054330083E064207004A374EBF09004AAE0A2E27A
:105443005003C2E2F0E0A2E15006125456121BECE4
:10545300025254C2E1F07A008E828F83A3E0F922D4
:1054630074F7120A56EAFEEBFF79011223127A8DC2
:105473007B04121DA88E828F83A3A3A3A3E06004E1
:105483007400800274EB12539D5003C2E2F0E0A259
:10549300E1500612549F121BEC025393C2E11243D4
:1054A30007A3E0A2E4E433FA8E828F83A3E0F92218
:1054B30074F7120A56EAFEEBFF79011223128E8269
:1054C3008F83A374EB1253A25003C2E2F0E0A2E174
:1054D3005006125456121BEC02525474F7120A5619
:1054E300EAFEEBFF7A8D7B04121DA8EEFAEFFB12A6
:1054F3001C4602524D74F7120A56EAFEEBFF7A8DF0
:105503007B04121DA8EEFAEFFB121C4602525474E0
:10551300F7120A5674EF1210E0EAFEEBFF12629ED6
:105523007AE17B0C122552E9606285188285198322
:105533007409F0740112136974EFF01255A0F87432
:1055430002121369E81255D4A3A3E0C0E074041255
:105553001369D0E01255C1640870158E828F83A33E
:10556300A3125594E0C0E07405121369D0E08006DD
:105573007405121369E41262FD7406121369AA8298
:10558300AB83121CE8AA18AB19122C5A74110241EE
:10559300A01262DB2407F582E438F583221255B6A4
:1055A300FB8A828B831262CE88828983E0FCA3E02C
:1055B300F9EC22EE2402F8E43FF9E8FAE922125565
:1055C300C5221255CAE022F08E828F83A3A3A3A320
:1055D30022F0A3E91262EC1255DE22E0F8A3126670
:1055E300CFA3A322C082C083121D2A024F9AC08276
:1055F300C0839004C77467F0A37404F0A37483F0AA
:10560300A37404F0901E237415F0A37434F0A374F0
:10561300B3F0A37433F09004B374E0F0A3741BF0FD
:105623009004B0E04401024622121C8E024F9A7489
:10563300F6120A5674FE1210E09004AC12585B6026
:10564300077AAC7B04121CA69004B2E4F0901C070A
:1056530012585B60268007AA18AB19121CA6900487
:10566300ABE0F91223F68A088B09A808A909851863
:10567300828519831257B3E84970DC740202660508
:1056830074F7120A56E9FA7B009004ABE0F912248E
:105693002002525474F7120A5674F01210E0EAFC16
:1056A300EBFDE9FE8C828D83E0F874271257A43456
:1056B30037F583E493C0E07401121369D0E0F0641A
:1056C3000B700DEE8C828D83A3F0121D0C02579785
:1056D300E07003025797640C6003025788741A6ED4
:1056E300700B7404121369E4F0A302578774041255
:1056F3001369ECF0A3EDF0EC242F12579CC0E07477
:1057030003121369D0E012685F1213527406121366
:105713006912133A8C828D831262C1740A1213695F
:105723001257B3EC240E12579C541060098518824B
:10573300851983E48013EC241212579CF8900CFD16
:10574300E0C398851882851983F0E0C0E0740C12D9
:105753001369D0E0F0EC241512579CC0E0740D12CD
:105763001369D0E0F0EC241612579CC0E0740E12BB
:105773001369D0E0F0EC241712579CC0E0740F12A9
:105783001369D0E0F07402121369EEF07401121081
:10579300B8122C5A74100241A0F582E43DF583E05F
:1057A3002228F582E422F8E43BF98A828B83A3A3BF
:1057B300E8F0A3E9F022C082C0839004B2E064035E
:1057C3007004790180027900024F9A74F7120A5625
:1057D3009004B2E012584512712A8A828B83E0C288
:1057E300E7F025E0F8EC1257A43DF583A3E493FE1C
:1057F300125845F58312585B6005EE9004B2F08AA7
:10580300828B83E0125851EC28F582ED39F583E45D
:1058130093FCC4540F25E0F874C11257A43404F563
:105823008312585B7005121CFA8014EC540F25E0A8
:10583300FCE82CF582E439F583124DC9122EB70228
:105843005254125851742128F582741E392225E0CE
:10585300F8E433F9229004551262CEE8492274F138
:10586300120A5674FE1210E0890AEAFEEBFF12597F
:105873005DFA7B001223DE8A088B09EA450960384A
:105883008A828B83E50AF0A3E4F08E0C8F0DF50E6C
:10589300780C121030A80A12596AEA2402FAE43585
:1058A30009FB1223C07403121062AA08AB09900407
:1058B300ABE0F91223EA8012851882851983E50A81
:1058C300F0791AAA18AB19121C767402121062022C
:1058D3003A0C74F2120A5674FE1210E0890B8A080D
:1058E3008B0912595DF50AFA7B001223DE8A0C8BB1
:1058F3000DAE0CAF0DEE4F604A8E828F83E50BF039
:10590300A3E4F0A80AEE28F8E43FF98E828F83120D
:1059130057B18E828F83A3A3A3A3E4F0F50A78087B
:10592300121030A80B12596A123D1F1223C07403C0
:10593300121062EEFAEFFB9004ABE0F91223EA795E
:10594300008014851882851983E50BF0791AAA184B
:10595300AB19121C76791A02423274FB29F582E4E0
:105963003436F583E49322741C28F582E43437F546
:1059730083E493FC7D0022C082C083E99004AB02E0
:10598300462274F6120A5674FE1210E0EAFEEBFF8A
:10599300EE542070378040A8A8C2AF900454E0149E
:1059A300125ABEF508E8A2E792AF8A828B83125A95
:1059B300B59004AE125AD8121C82851882851983B9
:1059C300E0641560077AAE7B04121CA67A4E7B0452
:1059D300122408EA4B70C0EF54807012801C9004AC
:1059E300AE125AD8121C827AAE7B04121CA6900403
:1059F300ABE0F91223F6EA4B70E4EE5410600E8527
:105A03001882851983742D12502B121C82EEA2E08A
:105A1300500E851882851983742412502B121C8210
:105A2300EE5402600E851882851983742512502B5B
:105A3300121C82EE5404600E851882851983742625
:105A430012502B121C82EE5408600E8518828519A1
:105A530083742812502B121C82EE54406010740180
:105A6300121369126AC0742C12502B121C82EE544A
:105A73008060107401121369126AC0742F12502BC4
:105A8300121C829004AC12585B6020A8A8C2AF908D
:105A930004AC125AC89004ACE4F0A3125ADE125AB2
:105AA300D7121C827AAE7B04121CA67A007B0002FA
:105AB300567EE0851882851983F022F0E8A2E7E498
:105AC3003322900433125ACC22E0FAA3E0FB22A340
:105AD300A3A3A3A3A3EAF0A3EBF022125ABEFEE80A
:105AE300A2E792AF22C082C0839004AE1262CAEAD8
:105AF300687002EB6970079004AEE4F0A3F0024F04
:105B03009A74F7120A56EAFEEBFFEE4F7003121F68
:105B1300E2A2AFE433F508C2AF8E828F8312585BE3
:105B23006028E824FBFAE934FFFB9004AE12712CE1
