:020000040000FA
:060000000212DE020842BC
:03002B00020F378A
:03003300020E2793
:03004300020F5D4C
:030053000207772A
:03006B00020E0181
:100083000207D60105030101FF732F00000000A939
:100093002E00000000FF000000FF00010020FD0013
:1000A300020612FFFF0101010400BC15000000104D
:1000B300270000FFFF64161027000064006400B8E7
:1000C30001A0BB0D00A0BB0D00020200080000054B
:1000D30002070401051E02051E020A0A010808019F
:1000E30003B80B02803E0102FEFFE8030A0500018C
:1000F30001FFFF020A1401E0010C17000000010ECA
:100103002714270000000000001A27202700000002
:1001130000000000000000000000000000000010CC
:1001230020202020202020202020202020202020CC
:1001330001051E01040100010006FC80043B82014D
:10014300040101010007BC80044B82010401020188
:1001530000089080040B82010401020300056481FE
:1001630005328101040102040003BA8203F682010D
:100173000401070300052881051E8101040102040F
:100183000003A28203C08201040108030005148155
:10019300054681010401020400041B820413820149
:1001A3000401020400038A8203D8820104010204C9
:1001B3000003B48203D282010401030100043B82E1
:1001C30006FC8001040102020007CA8007A0801216
:1001D30012FD60461212EE603DE9687008F618F6EB
:1001E30018F618F622748067F712020609090974D3
:1001F3008067F7221212EE601D1212FD70051919A5
:1002030019801A1211A3701F1211B7C37003E66786
:100213003319191940071818182208080874FFF62B
:1002230018F618F618F6221211B760171213977002
:100233002192F01213A07019501720F01408080827
:10024300090909E7F61819E7F61819E7F61819E77F
:10025300F6221213A060E6E869701F0808E62480FE
:10026300F608E436F618547FB47F0CE65480600732
:10027300F6E418F618F622181822E9C6CC08C6CDFB
:1002830008C6CE08C6CFC0E0E8C0E0EAC0E0EBC0D5
:10029300E009E9F809E7FA09E7FBE6F918E6F8C324
:1002A300EC98ED99EE9AEBC2E7F5F0EFC2E795F023
:1002B300500E600CEBCFFBEACEFAE9CDF9E8CCF8AF
:1002C300EAA2E7D2E7FAEB33FB13F5F0EEA2E7D2AB
:1002D300E7FEEF33FFC5F013A2E730E601B313C522
:1002E300F0C3C0E0C0F07F00C39BFB605E94186066
:1002F3000F401D14601AD0E023F9D0E0F80203D8B0
:100303008AF0E9486003D2F0E4AFF0FAF9F8803BF1
:10031300EB30E40D89F0EA6003D2F0E4AFF0F9CA00
:10032300F8EB30E30D88F0EF6002D2F0AFF0E4CAEF
:10033300C9F8EB54076014FBC3EA13FAE913F9E8AD
:1003430013F8EF135002D2E0FFDBEDD0E0C0E03052
:10035300E739C3E49FFFF5F0EC98FC42F0ED99FD1B
:1003630042F0EE9AFE42F0D0E0F9D0E0F8E5F0601A
:100373007AE923F9EE20E742D8028067C3EF33FF1F
:10038300EC33FCED33FDEE33FE80EAEC28FCED3973
:10039300FDEE3AFED0E023F9D0E0F84002801BC323
:1003A300EE13FEED13FDEC13FCEF135002D2E0FF4E
:1003B30008B800067F7F74FF802EEF3350178CF050
:1003C30020F00260100CBC000C0DBD00080EBE0036
:1003D3000408E860DFE933E813FFEE2313FE4F4D13
:1003E3004C8008E95480FFE4FEFDFCEE33EF33F468
:1003F3007004FCFD7E80D0E0FBD0E0FAD0E0F8D0C2
:10040300E0CFC618CEC618CDC618CCC6F922121234
:10041300EE7004181818221212FD700D74FFF618EE
:1004230019F61819F61819F622E7548066F612130E
:10043300A0700F12139770F014F608F608F608F67A
:1004430080D1121397700CF608F608768008E644FC
:100453007F80EC1211BA700C1211A660BFE65480B3
:10046300F6E480BB1211A6700519191980A5E86975
:10047300700C763F18768018F618F6E8F922E6CD68
:10048300C0E018ECC0E0E633CD33CDD313F6E71963
:10049300FCE7191933CC33C3947F400ECD9D502410
:1004A30008E65480F6E418F6800FF4043D14501463
:1004B30008E6447FF6187680E418F618F6D0E0FCD8
:1004C300D0E0FD22CCD313CCFD18E4C6CBC0E0189A
:1004D300E4C6CAC0E00808ED08C633E613F618E41C
:1004E30033C675F003C3CA97CA09CB97CB199C408F
:1004F300047D08802EBD00030205BA16B6FF05066B
:1005030006081618C3CA33CACB33CB33CA27CA0962
:10051300CB37CB193CC37D08803E187D0820E75CB0
:10052300C633C6CA33CACB33CB33DDF1D5F0EB3098
:10053300E77BCA97CA09CB974ACB199C406F4B708C
:1005430025E620E0218066187D08C3CA97CA09CB37
:1005530097CB199CD3C633C6CA33CACB33CB3350DC
:10056300C9DDE7D5F0E1D3E4C636C608C636C6080A
:10057300C636C608C636C61818188031C3CA97CA05
:1005830009CB97CB199CB34097C633C6CA33CACBA2
:1005930033CB33DD34D5F02EC6A2E0C640C8CA271C
:1005A300CA09CB37194A70BECB3CB480B90808E6F8
:1005B3003308E633601F181818D0E0FAD0E0FBD0F8
:1005C300E0FCD0E0FD22187D08CA27CA09CB37CB4F
:1005D300193CD3808013F618E4B67F11F618B6FFE2
:1005E3000EF618C60470D20808768080CAF618F68C
:1005F30018F680C5001212EE604F1212FD6012E76A
:10060300548066F61211A37011121397703B0909F7
:1006130009F4F618F618F618F6221211B770151227
:1006230013A008080860EAE6447FF618768018E409
:10063300F618F6221213A060161213977012E4F63E
:1006430008F608F608E65480F6090909181818226E
:10065300EAC0E0EBC0E0ECC0E0EDC0E0E687F0A468
:10066300FBACF008E687F0A42CFCE435F0FA18099B
:10067300E687F0A42C4B60027401CA35F0FCE43326
:10068300FB09E687F0D2F7A42CCB35F0FC1908E67A
:1006930087F0A42BCC35F0FBE433FD0819E687F093
:1006A300D2E7A42C4ACB35F0CD3400FC09E687F021
:1006B300D2E7A42DCC35F0FDE433FA0918E687F030
:1006C300D2F7A42CCD35F0CA3400FC08E687F0D26B
:1006D300E7D2F7A42ACC35F07A7E20E70B0ACB3396
:1006E300CBCD33CDCC33CC33CB3350147004ED307E
:1006F300E00ED2F1E4CD3DCDCC3CCC3B5005DA0548
:10070300C2F1EB547FC63308E63392F0FBE73309BB
:10071300E733C39A502D2B70190C0D4C4D701518DF
:1007230006E608C333700D20F10AA2F013F6E418AD
:10073300800B4024E4F630F002768018F618F618A1
:10074300F68024D33B14501074FFA2F013F61876EE
:1007530080E418F618F6800FA2F013F618E63303B8
:10076300F618ECF618EDF6D0E0FDD0E0FCD0E0FB97
:10077300D0E0FA22C0E074F1120BCCA2AFE433F55F
:1007830009D2AF85A708AFA1EF5508FE74105E60CC
:1007930006121DB475A1EF74085E6008121DBA75C8
:1007A300A1F78024EFA2E092F0E508A2E082F050E6
:1007B30017906198E0F8900A1DE0C398A2D265D023
:1007C300335002E8F075A1FEE509A2E092AF7F0283
:1007D300020C2BC0E074F2120BCCA2AFE433FED2B6
:1007E300AF9061A4E0F8759B00E591585408600848
:1007F3007591F7121E028023E59158541060087515
:1008030091EF121E088014E591A2E092F0E8A2E0B5
:1008130082F05007E0C2E0F0121F529061A3E0F8AB
:10082300E5E9585404600E121F2875E9FB906193A3
:10083300E0A2E640F2EEA2E092AF7F01020C2BC0F1
:10084300E074F2120BCCA2AFE433FED2AF9061A5F9
:10085300E0F8E5BF585404600675BFFB121F6A80B9
:10086300D4C3E498F8E499F91208A58026C3E49A5E
:10087300FAE49BFBE920E7E91208A5E498F8E49978
:10088300F922C3E498F8E499F91208A5E498F8E486
:1008930099F9C3E49AFAE49BFB22EB20E7CFE92022
:1008A300E7E0B90010BB0008E88AF084F8AAF02258
:1008B300E4FBC8FA22EB70227B10C833C8C933C9E2
:1008C300335007C39AC3DBF280069A50012ADBEA4E
:1008D300C833F4C8C933F4C9FA2275F008E4C8333D
:1008E300C8C933C933C99AC99B5004C92AC93BD55E
:1008F300F0ECFBC833F4C8E4C9FA2212094930F01A
:100903003912098E803412094920F01430E72B7410
:10091300FFFCFBFA747F8022E4FCFBFA7480801AEC
:10092300B48008BC00F2BB00EF800F50EBF9E4C3C6
:100933009AFAE49BFBE49CFCE499C6CC18C6CB185A
:10094300C6CA18C6F922E4C9C608CAC608CBC6D3A4
:10095300330308CCC63392F0C3947F402E941840DF
:1009630019C9B90704CACBCC225025C309CA33CA53
:10097300CB33CBCC33CC33D9F422F4600DC9CCC305
:1009830013CB13CBCA13CAD9F6CC22E4FCFBFA224D
:1009930014FCFBFA22080808EAC0E0EBC0E086F08A
:1009A300E7A4FA180986F0E7A42AFA180986F0E7FB
:1009B300A42AFA180986F0E7A42AFA1986F0E7A40C
:1009C300FBE5F02AFA190886F0E7A42BFBE5F03AD9
:1009D300FA190886F0E7A42BFBE5F03AFA18180990
:1009E30086F0E7A4C5F02BFBE43AFA1908E7C5F053
:1009F300C6A426F6E5F03BFBE43AFA1886F0E7A432
:100A0300F6E5F00826F6E43B08F6E43A08F6D0E00B
:100A1300FBD0E0FA22080808E630E71112118F1222
:100A23000A30080808C64480C6181818221818186F
:100A3300E9799EC608CAC608CBC608CCC6C37020CF
:100A43007996CACBCC7019798ECBCC70137986CCBE
:100A5300700EF9802ACA33CACB33CBCC33CC3319CB
:100A630030E7F2CCCBCA3350147004EA30E00DE423
:100A7300CA3ACACB3BCBCC3CCC500209C3E913C620
:100A8300CC182313C6CB18C6CA18C6F922E4CFC0A4
:100A9300E0E4CEC0E0E4CDC0E0E4CCC0E075F020FB
:100AA300E626F608E633F608E633F608E633F618E4
:100AB3001818EC33FCED33FDEE33FEEF33FFC3ECDC
:100AC3009709ED9709EE9709EF97191919400FFF49
:100AD300EC97FC09ED97FD09EE97FE191906D5F081
:100AE300BFECF709EDF709EEF709EFF7191919D07C
:100AF300E0FCD0E0FDD0E0FED0E0FF222518C58267
:100B0300C0E0E51934FFC583C0E0E518C39582242E
:100B1300F810AF08858319858218800885831985A5
:100B23008218D2AFCEF0A3E520F0A37808E608F050
:100B3300A3DEFAEFF0A3E58124FAF8E608F0A3E6D2
:100B430008F0A3E608F0A30808E608F0A3E608F017
:100B5300A315811581D0E0FED0E0F815811581152C
:100B630081E8C0E0EEC0E022D083D082E9C0E0E4B7
:100B730093A3C386F0C5F095F0F908E493A386F038
:100B8300C5F095F0702408E493A386F0C5F095F0C2
:100B9300701908E493A386F0C5F095F0700E08E48D
:100BA30093A3C3994007E9048004A3A3A3E475F0C6
:100BB30002A42582F582E5F03583F583D0E0F9E4DC
:100BC30093A3C0E0E493C0E022C0D02518C582C03F
:100BD300E0E51934FFC583C0E0E518C3958224F32B
:100BE30010AF08858319858218800885831985824B
:100BF30018D2AFC8F0A3E9F0A3EAF0A3EBF0A3790E
:100C030008E709F0A3D8FAECF0A3EDF0A3EEF0A304
:100C1300EFF0A3D0E0F0A3D0E0F0A3D0E0F0A3E5A1
:100C230020F0A3E5F0F0A322851983851882E0C0A4
:100C3300E0A3E0F9A3E0FAA3E0FBA37808E0F60859
:100C4300A3DFFAE0FCA3E0FDA3E0FEA3E0FFA3E043
:100C5300C0E0A3E0C0E0A3E0F5D0A3E0F520A3E06B
:100C6300A3F5F010AF088583198582188008858362
:100C730019858218D2AFD082D083D0E0F8D0E03289
:100C8300121382B90003020CC2E4900301789B792A
:100C9300158002F0A3D8FCD9FA7A9B7B17900086C3
:100CA300784D79028015E493A3AD82AE838A828B5B
:100CB30083F0A3AA82AB838D828E83D8E9D9E775AB
:100CC300822A7583E174041210207582AE7583291C
:100CD300740012102075F0108E1A8F1B85821F85E9
:100CE300831E851882851983E0CEA3E0CF851F82FA
:100CF300851E83EBC9EAC8EDCBECCAC3E833C8E968
:100D030033C9EA33CAEB33CBC3EA9EF51DEB9FF538
:100D13001CB35004AB1CAA1DEC33CCED33CDD5F082
:100D2300DAAE1AAF1B22D083D082ECC0E0EDC0E074
:100D3300E493A3FCE493A3FDED4C600D120E45EC8C
:100D430024FFFCED34FFFD80EFE493A3FCE493A3C5
:100D5300FDED4C600D120EE2EC24FFFCED34FFFDC3
:100D630080EFD0E0FDD0E0FCE493A3C0E0E493C0C7
:100D7300E022851983851882E0A3FEE0A3F520789D
:100D830008E0A3F608DFFAE0A3FFE0A3C0E0E0A3D6
:100D9300C0E0E0A3C0E0E0A3C0E0E0A3C0E010AF88
:100DA300088582188583198008858218858319D25E
:100DB300AFD083D082021026D083D082E9C0E0E492
:100DC30093A3C386F0C5F095F0F908E493A386F0E6
:100DD300C5F095F0700BE493A3C3994005E9048033
:100DE30002A3E475F002A42582F582E5F03583F5CC
:100DF30083D0E0F9E493A3C0E0E493C0E022C0E031
:100E030074F2120BCCA2AFE433FED2AFE589A2E1B8
:100E13005003121CAC758900C2C5EEA2E092AF7FED
:100E230001020C2BC0E074F2120BCCA2AFE433FE30
:100E3300D2AFE58BA2E05003121CAC758B00C2E865
:100E430080D8C0E0C3E49396087401939618400FCA
:100E5300E49366700808740193661870007019A310
:100E6300A3C3E49396087401939618A3A3400DD0EB
:100E7300E0D0E0D0E0020D65A3A3A3A3A3A3D0E039
:100E8300227404800474028000CCC0E0EDC0E0E56D
:100E930018C39CCCAD1950011D10AF068C188D19C9
:100EA30080068C188D19D2AF120FA2D0E0FDD0E0CE
:100EB300FC2274028000CCC0E0EDC0E0E518C39CC6
:100EC300CCAD1950011D10AF068C188D1980068CFE
:100ED300188D19D2AF120F80D0E0FDD0E0FC22C0F4
:100EE300E0C0F088F0E49366700808740193661814
:100EF3007000A8F0A3A3700BD0F0D0E0D0E0D0E056
:100F0300020D65A3A3D0F0D0E022D083D082CCC061
:100F1300E0E493A36006120FC31470FAE493A36092
:100F2300061211261470FAD0E0FCE493A3C0E0E4A7
:100F330093C0E022C0E0C0D0E8C0E0E9C0E0A9A8C7
:100F4300D2AFC2C7E9A2E7E433F8E9A2E792AFD090
:100F5300E0F9D0E0F8D0D0D0E032C0E074F2120B68
:100F6300CCA2AFE433FED2AFC2C0E5D1A2E45003BA
:100F7300121D24EEA2E092AF7F01020C2BCAC0E047
:100F8300E493A3C582CCC582C583CDC583F0A3C535
:100F930082CCC582C583CDC583DAE5D0E0CA22CA37
:100FA300C0E0E0A3C582CCC582C583CDC583F0A3D1
:100FB300C582CCC582C583CDC583DAE6D0E0CA221B
:100FC300C0E0E493A3D39C5010E493A3C39C400AD2
:100FD300D0E0D0E0D0E0020F2AA3A3A3D0E0227098
:100FE30009080808226016181818C6C333C608C6AD
:100FF30033C608C633C608C633C6D5E0EA22C008DE
:10100300C3E096F50808A3E096420808A3E09642D9
:101013000808A3E09645087001D3D00822C09FF5C5
:101023009FE473D09F22D083D082C09FE493C0E01B
:10103300740193C0E0740293F59F22C5822518C5FD
:1010430082C583351910AF07F5198582188007F516
:1010530019858218D2AFC583227404800A74038071
:1010630006740280027401C0E0F404121077D0E029
:10107300121339222518F58210AF08F518400C1504
:10108300198008F51840021519D2AF85198322007B
:10109300C0D0251810AF08F518500C05198008F5B5
:1010A3001850020519D2AFD0D022BB0102E722C0EB
:1010B30082C08389828A83BB0003E08002E493D0E9
:1010C30083D082226016080808C6C313C618C61345
:1010D300C618C613C618C613C6D5E0EA222518F8E3
:1010E300E43519F9222518FAE43519FB222518FCF1
:1010F300E43519FD22C3E0C696F608A3E0C696F6CA
:1011030008A3E0C696F608A3E0C696F622251810B3
:10111300AF08F518400C15198008F5184002151989
:10112300D2AF22C0E0E493A36C7009D0E0D0E0D04A
:10113300E0020F2AA3A3D0E022E066701008A3E028
:1011430066700A08A3E066700408A3E06622C3E0A1
:101153009608A3E09608A3E09608A3E096A2D265BA
:10116300D03322E76670100809E766700A0809E7BA
:101173006670040809E76622C3E096F008A3E096C8
:10118300F008A3E096F008A3E096F022181818E4FC
:10119300C396F608E496F608E496F608E496F62273
:1011A300181818E60846087009E626087005E6339D
:1011B300F4220822191919E70947097009E72709D1
:1011C3007005E733F4220922C3E49396087401936C
:1011D300960874029396087403939622C3E697F6CF
:1011E3000809E697F60809E697F60809E697F6224E
:1011F300E026F608A3E036F608A3E036F608A3E0F7
:1012030036F622E627F60809E637F60809E637F642
:101213000809E637F622E493F608740193F6087496
:101223000293F608740393F622E056F608A3E056F9
:10123300F608A3E056F608A3E056F622E056F008B7
:10124300A3E056F008A3E056F008A3E056F022E628
:1012530057F60809E657F60809E657F60809E65768
:10126300F622E026F008A3E036F008A3E036F00803
:10127300A3E036F022E647F60809E647F60809E652
:1012830047F60809E647F622700422600D18C6C324
:1012930033C608C633C6D5E0F41822600D08C6A2CB
:1012A300E713C618C613C6D5E0F322C3E09608A316
:1012B300E09608A3E09608A3E09622C6F4C608C603
:1012C300F4C608C6F4C608C6F4C622C3E7960809DE
:1012D300E7960809E7960809E7962275D000758115
:1012E3003F75180175190300020C83E6084608C30D
:1012F300134608336002E633F422E7094709C313B0
:101303004709336002E733F422600C08C6C313C6EF
:1013130018C613C6D5E0F422E6F008A3E6F008A346
:10132300E6F008A3E6F022E0F608A3E0F608A3E05F
:10133300F608A3E0F622CAC0E0E6F0A308DAFAD082
:10134300E0FA22EAF0A3EBF0A3ECF0A3EDF022E045
:10135300FAA3E0FBA3E0FCA3E0FD22E0FCA3E0FD95
:10136300A3E0FEA3E0FF22E0F8A3E0F9A3E0FAA3E1
:10137300E0FB22E8F0A3E9F0A3EAF0A3EBF022E517
:10138300C754F84401F5C77901222518F582E435DD
:1013930019F58322E72719471947194722E6261823
:1013A300461846184622C2AF75D69F020000221285
:1013B30010290F8B01121029848D01121029D08E50
:1013C30001121029688F01121029748F011210293C
:1013D300BD8F01121029F08F011210297C90011288
:1013E30010298E9101121029CF9201121029CE9348
:1013F30001121029F8930112102963940112102984
:10140300BC94011210292F9501121029659701121E
:101413001029EB9801121029D69901121029249B47
:10142300011210295C9D0112102953A001121029E9
:1014330062A001121029F6A001121029A1A1011224
:101443001029E4A1011210292DA2011210297DA255
:1014530001121029EAA20112102956A30112102920
:1014630072A3011210295AA401121029D1A6011244
:10147300102903A801121029D2A80112102954A976
:1014830001121029A0AD01121029CFAD01121029AC
:101493002AAE011210295DAE01121029B8AE011255
:1014A3001029D4AE0112102935AF0112102985AFCE
:1014B3000112102934B001121029F7B001121029BA
:1014C300BFB1011210290BB40112102997B50112F3
:1014D3001029EEB6011210290AB8011210290DB80D
:1014E300011210293CB8011210292BBA011210293C
:1014F300F4BA0112102935BB011210298BBC011259
:10150300102901BD0112102934BD0112102998BD03
:1015130001121029B9BF0112102918C00112102994
:10152300EEC00112102902C10112102916C10112C5
:10153300102943C10112102973C10112102917C3C5
:101543000112102914C40112102962C401121029B6
:1015530089C40112102964C5011210290AC6011297
:10156300102990C701121029D7C70112102944C8A6
:101573000112102999C90112102942CA0112102916
:1015830076CA011210298ECA0112102931CB011219
:101593001029ADCD0112102955CF0112102979CF91
:1015A3000112102997CF0112102963D001121029BB
:1015B300B1D30112102933320012102965320012FF
:1015C3001029E536001210293437001210297A3712
:1015D300001210291D380012102982380012102918
:1015E300C638001210292D3A00121029593B001257
:1015F3001029563F00121029D53F00121029FB4035
:10160300001210295E4100121029AA42001210296B
:10161300424500121029CF4500121029D945001266
:101623001029014600121029C946001210295E47ED
:1016330000121029874700121029B44700121029FD
:10164300094A00121029D64A00121029154B00121C
:101653001029974B00121029424C00121029744C88
:1016630000121029BF4C00121029F84C0012102947
:10167300474D00121029A34D00121029254E0012C8
:1016830010298A4E00121029024F00121029AB5064
:1016930000121029A35100121029E452001210293C
:1016A3003856001210299458001210294D5900126F
:1016B3001029955900121029765B00121029B15B8D
:1016C30000121029BA5B00121029C35B0012102903
:1016D300CE5B00121029ED5B00121029A05C0012F2
:1016E3001029FD5C00121029075D00121029165DF8
:1016F30000121029AC5D00121029735E001210292C
:101703009D5F00121029C86000121029BE610012EB
:101713001029D661001210290A62001210292862CA
:1017230000121029706200121029A96200121029F8
:1017330060630012102921640012102994640012BE
:101743001029106500121029AC6500121029D26609
:10175300001210298E67001210292E68001210291A
:101763001B6900121029736900121029396A0012CB
:1017730010295C6A00121029716B00121029BC6BCE
:1017830000121029186C00121029806C0012102905
:10179300A46C00121029CC6C00121029116D0012D8
:1017A3001029356D00121029B96D00121029A26E8F
:1017B30000121029E76E00121029106F0012102971
:1017C300AE6F001210291970001210294570001213
:1017D30010292671001210291AF20312102952F24D
:1017E3000312102973F203121029B5F20312102900
:1017F30019F30312102923F30312102933F30312ED
:1018030010296AF30312102913F703121029DBF8C6
:1018130003121029BFFA0312102961FB03121029C6
:10182300EBFB031210292F8102121029938102125C
:101833001029F181021210293C82021210295782C9
:10184300021210297E82021210299B820212102991
:10185300A78202121029388402121029518402121D
:101863001029CD8402121029E08402121029F08479
:1018730002121029948502121029008702121029DE
:10188300138802121029B38802121029BD8802128C
:1018930010293C89021210294D89021210298C89C2
:1018A30002121029BA8902121029878A02121029FA
:1018B300DE8A02121029178B021210296D8B021275
:1018C30010298B8B02121029D98B02121029A48C98
:1018D30002121029F28C021210293F8D02121029D4
:1018E300C28D02121029EC8D02121029228E0212CF
:1018F3001029318E02121029908E02121029088F9E
:1019030002121029498F02121029998F02121029ED
:10191300C48F02121029DE8F02121029F88F0212CF
:101923001029CD9002121029D7900212102912917A
:10193300021210292291021210292B91021210294E
:101943007C9102121029909102121029B292021274
:101953001029C792021210295A9302121029CE930A
:10196300021210297394021210297E940212102974
:10197300DE9502121029FA950212102946960212D8
:101983001029B49602121029E69602121029009724
:101993000212102942970212102995990212102956
:1019A3002D9A02121029A49A02121029019D0212E3
:1019B3001029199D021210291C9D02121029289D1D
:1019C300021210293C9D02121029449D0212102973
:1019D3007B9D021210296F9E02121029F99E02129A
:1019E30010297B9F02121029FB9F02121029D2A0FB
:1019F30002121029F4A0021210298DA1021210293B
:101A0300EAA102121029EDA1021210295CA202120E
:101A13001029A8A302121029BBA40212102946A55B
:101A23000212102959A6021210291EA70212102908
:101A33004FA70212102975A7021210297EA70212BE
:101A43001029ADA7021210295DA8021210290DA9B1
:101A53000212102980A90212102923AA02121029A6
:101A630096AA02121029D5AA021210291EAB02123D
:101A7300102952E703121029BFE7031210290BE8BC
:101A8300031210295DE803121029DDE8031210295F
:101A9300DAEA03121029EDEC0312102926F00312DF
:101AA300102955F00312102973F003121029DDF0E9
:101AB3000312102905F10312102938F1031210291A
:101AC3006DF103121029CFF10312102949BE03123D
:101AD300102967BE03121029A1BE03121029F6BEF6
:101AE300031210297DBF0312102909C10312102903
:101AF3000BC20312102964C20312102925C3031257
:101B0300102965C303121029EFC30312102912C54C
:101B1300031210295AC50312102988C6031210296B
:101B2300E1C603121029D1C70312102968C8031292
:101B330010299FC80312102991C903121029D4C96F
:101B43000312102981CB031210299EDA03121029E4
:101B53001ADB0312102948DB031210298DDB031251
:101B63001029EEDC031210290ADD0312102940DDCF
:101B730003121029B9DD0312102907DE03121029FD
:101B830097DE031210296FDF03121029C0DF03123F
:101B9300102925E00312102998E003121029DCE034
:101BA3000312102934E10312102956E103121029FC
:101BB300E6E10312102977E203121029AFE20312C0
:101BC3001029D8E20312102919E303121029BAE4E9
:101BD300031210299CE50312102978E60312102939
:101BE30091AC03121029EAAC031210292FAD031292
:101BF30010298AAD0312102944AE031210297AAFBB
:101C030003121029A6B003121029A7B20312102938
:101C13006CB403121029B6B603121029B2B703121B
:101C2300102988B80312102984B903121029F5B9B1
:101C330003121029FABA03121029F6BB0312102952
:101C4300F2BC0312102957EC0412102968EC041299
:101C5300102906ED04121029F8FF0112102926F4A9
:101C63000412102935EF0412102945EF041210292C
:101C730060EF04121029C8EF041210297AE9041244
:101C83001029FEE90412102964EA0412102973FED4
:101C93000212102995FE02121029FBFE02121029CE
:101CA3001AFF0212102962FF02121029BBFF02124F
:101CB300102921E70412102936E704121029AAE794
:101CC30004121029C4E704121029DBE704121029B7
:101CD300EEE70412102906E8041210291BE8041287
:101CE3001029A1D004121029AFD00412102928D131
:101CF30004121029FDD104121029CFD30412102984
:101D030057F30412102941A904121029AEA9041291
:101D1300102966AA0412102959AB04121029C6AC63
:101D2300041210292DAD0412102988AD04121029B4
:101D330091AD04121029A1AD0412102915AE04129D
:101D430010292BAE0412102935AE041210290BA44E
:101D53000412102937A404121029CDA60412102945
:101D63000DA70412102949A7041210295DA7041214
:101D7300102976A70412102967A80412102919A99B
:101D8300041210292DA9041210291CE3041210298E
:101D930040E30412102959E30412102997E30412B3
:101DA3001029CDE30412102900E4041210296CE475
:101DB300041210296FE40412102979E40412102983
:101DC30086E4041210291ECA021210292BDA041207
:101DD300102976DA0412102994DA04121029AFDAE2
:101DE3000412102915DB0412102921DB0412102917
:101DF3007EDB04121029A2DB0412102968DC041212
:101E0300102975DC0412102986DC0412102968F0ED
:101E13000412102980F004121029ACF004121029C6
:101E230094B304121029F8B40412102906B504124D
:101E330010291AB50412102937B5041210294CB50C
:101E430004121029728801121029E1B50412102915
:101E530046B604121029DCB604121029B5B70412D1
:101E63001029C5B704121029D4B7041210299CEE07
:101E730004121029C0EE04121029E8EE04121029EE
:101E830010EF04121029F9DE0412102920DF0412C6
:101E930010293EDF04121029B3DF0412102936D7AC
:101EA300041210294FD70412102966D704121029DF
:101EB3006FD7041210298DD70412102997D7041253
:101EC3001029A1D704121029B4D7041210293AD823
:101ED30004121029AFD804121029DDD804121029D6
:101EE3002ED9041210297AD90412102995D9041273
:101EF30010299FD904121029B0D904121029F3D93B
:101F03000412102939F204121029619304121029C2
:101F13008D9304121029B09304121029C393041251
:101F23001029DE930412102942940412102970948C
:101F330004121029809804121029D599041210292B
:101F4300079A04121029729A04121029D99B0412B9
:101F53001029019C04121029169C04121029269C96
:101F630004121029669C04121029A89C041210293B
:101F7300B89C0412102990E404121029A0E404125E
:101F83001029C4E404121029EDE40412102917E502
:101F9300041210293BE50412102952E504121029FA
:101FA30080E504121029A3E504121029CFF20412CC
:101FB3001029FBCC041210290BCD0412102929CEB1
:101FC300041210295DCE041210297FCE04121029A9
:101FD300A7CE04121029C0CE04121029FCCE04127D
:101FE30010295ECF04121029A3CF04121029E8CFC1
:101FF3000412102915D0041210294DD004121029EF
:1020030050E80412102962E80412102947E9041267
:1020130010294AE904121029E7ED041210291DEED4
:102023000412102939EE041210297BEE0412102930
:102033008BEE04121029E89C04121029229D04122D
:1020430010298B9D04121029AA9D041210294C9E5D
:1020530004121029559E04121029A69E0412102959
:10206300CF9E04121029DC9E041210294D9F0412E6
:102073001029DB9F0412102929A0041210295FA044
:1020830004121029C0A004121029E8A00412102978
:102093005FA104121029BBA104121029FEA104128E
:1020A30010293BA2041210294DA2041210295FA289
:1020B300041210297EA20412102987A204121029E7
:1020C30055A304121029A1A304121029DFA304129B
:1020D3001029DBE504121029B4DC04121029EADC10
:1020E3000412102939DD0412102992DE041210297A
:1020F300639803121029949903121029D09903129B
:1021030010298A9B03121029B49B031210292D9EB8
:10211300031210296D9E0312102902A00312102925
:10212300A1A003121029F9A0031210297FA1031201
:102133001029B7A103121029F9A1031210296AA3C8
:1021430003121029EAA4031210292BA70312102942
:1021530059A70312102985A7031210298EA703126A
:102163001029E4A70312102974A803121029B2AB93
:102173000312102934AC0312102910F4041210298D
:1021830037C5041210294CC504121029FFC50412C7
:1021930010293FC60412102958C6041210298BC6F1
:1021A30004121029D8C6041210290CC704121029CE
:1021B3004EC70412102944C90412102984F20412D0
:1021C30010297DEA04121029DCEA041210291AEB03
:1021D300041210295BEB041210297DEB0412102961
:1021E300EAEB04121029CFD301121029DBD3011219
:1021F30010293DD40112102947D401121029DAD431
:102203000112102916D501121029D1D50112102956
:10221300E4D5011210294BD601121029DBD6011285
:1022230010291FD7011210299FD70112102948D94D
:102233000112102911DA01121029E6DB011210290B
:102243004ADD01121029B7DE0112102959DF0112EC
:102253001029F0E301121029EFE4011210297CE5A3
:1022630001121029A1E5011210293BE601121029E0
:1022730059E60112102976E601121029EAE6011245
:10228300102906E70112102933E701121029B4E8D7
:1022930001121029D5E80112102956E9011210295B
:1022A300FCE90112102943EA01121029B3EA0112D1
:1022B30010294DEB01121029C5EB0112102930EC46
:1022C30001121029CFEC011210293CED0112102943
:1022D30077ED01121029EBED0112102942EF0112E3
:1022E3001029D5EF0112102988F0011210290CF2E0
:1022F30001121029A5F20112102917F30112102956
:1023030014F501121029C0F601121029EDF601127D
:102313001029CFF801121029BEFA01121029C4FBAB
:102323000112102951C904121029C3C9041210291A
:10233300D1C904121029E2CA041210294DAE0412A5
:102343001029B6AE0412102932B0041210294EB06F
:102353000412102950B20412102993B20412102946
:10236300A5B204121029AFB20412102909B3041242
:102373001029EBCE021210298BCF021210290CD098
:10238300021210290AD10212102989D1021210292E
:10239300CED2021210296ED30212102920D50212B6
:1023A30010292CD60212102949D60212102976D7E9
:1023B3000212102924D902121029CED9021210298F
:1023C3001DDD0212102926DF02121029AEDF0212D0
:1023D300102908E0021210295BE002121029D6E04E
:1023E300021210294CE10212102984E10212102971
:1023F30070E802121029BDEA0212102999EB0212A9
:10240300102913F30412102920ED0412102900805F
:1024130003121029588003121029DE800312102999
:10242300E681031210292E8203121029A0820312BF
:102433001029F182031210292783031210293F83E5
:1024430003121029EB850312102983860312102926
:10245300BA8603121029F286031210293389031254
:102463001029838903121029C589031210299F8A11
:1024730003121029D88A03121029F78A031210298C
:10248300428B03121029628B03121029098C031249
:1024930010298E8C03121029E98C03121029298D1F
:1024A300031210293F8E03121029B590031210292D
:1024B300AE91031210290692031210294C920312B3
:1024C30010291493031210295993031210295C93B2
:1024D300031210296693031210296993031210291A
:1024E300ED93031210292694031210295394031217
:1024F30010297A94031210299E94031210293995F6
:1025030003121029459503121029729503121029FD
:10251300929503121029D595031210290C960312D4
:1025230010290B97031210293A9803121029EDF082
:1025330004121029F9F00412102935F1041210299C
:1025430005B80412102943B804121029DCB8041288
:102553001029E7B9041210292FBC041210298EEC9C
:1025630002121029B1EC021210299BED021210295C
:10257300EDED021210294FEE02121029A1EE021204
:102583001029E9EE0212102952EF02121029D7EF97
:102593000212102953F00212102999F00212102985
:1025A3009EF40212102902F7021210291AF80212DD
:1025B3001029A1F802121029BEF90212102914FAE7
:1025C30002121029F8FA0212102999FC021210299A
:1025D30002FE02121029D7CC0312102977CD031261
:1025E3001029E3CD03121029FDCD0312102991CE3A
:1025F30003121029C4CF031210290BD00312102980
:102603006FD003121029B2D103121029C9D20312B9
:1026130010294BD30312102923D503121029C5D532
:102623000312102974D603121029ABD703121029F1
:102633003ED80312102960D903121029E771001242
:1026430010295272001210299A7200121029DE7298
:10265300001210293073001210298D7300121029F3
:10266300C87300121029677400121029D87400125D
:1026730010295C7500121029CF7500121029E97515
:1026830000121029FA75001210295476001210292D
:10269300B97700121029D877001210292079001277
:1026A30010299F7900121029E07900121029DA7A93
:1026B30000121029E77B00121029DF7C0012102979
:1026C300ED7C00121029D87D001210297A7E0012A9
:1026D3001029EA7E00121029FF7E00121029A07F24
:1026E300001210299AFC0312102955FE0312102917
:1026F30014FF0312102969FF03121029008004122A
:1027030010295D83041210292186041210293987A8
:1027130004121029798704121029948704121029AE
:10272300B58704121029EF870412102934D4041238
:1027330010294FD40412102993D404121029B9D4A8
:1027430004121029E0D404121029F8D40412102919
:102753009BD504121029B0D504121029D2D6041225
:102763001029DBD604121029E4D604121029EDD661
:1027730004121029ACBC04121029A0C004121029A1
:10278300A5C004121029A7C004121029A9E104123C
:102793001029BF8904121029F58904121029318ADE
:1027A30004121029988A04121029C6F3041210295E
:1027B3000EC104121029D2EF04121029FCEF0412E7
:1027C30010296AF1041210298FF304121029BDFF96
:1027D30001121029D67F00121029F2F304121029D6
:1027E300D7F104121029F6C902121029A1C9021245
:1027F300102916C7021210294EC602121029AFC59E
:1028030002121029E4C30212102963C30212102911
:1028130025C302121029DCC20212102990C202122F
:1028230010292688011210291087011210291FC2AE
:102833000212102903C202121029B18601121029B3
:10284300DD8501121029BAC10212102948C10212F2
:10285300102924C10212102900C102121029F5C047
:1028630002121029C7C00212102998C0021210299F
:102873008EC00212102985C0021210297CC00212D8
:10288300102972C00212102962C0021210294EC010
:102893000212102983BC02121029A9BA02121029AC
:1028A30038BA02121029A7B9021210298BB80212E2
:1028B3001029A2B60212102929840112102999B6EF
:1028C30002121029F58301121029C3830112102962
:1028D3008FCE0212102913CE0212102973CD0212C9
:1028E30010293ECD0212102999CC021210298CB660
:1028F300021210298FB5021210291CB502121029D9
:10290300FEB402121029EBCB02121029D9B4021221
:102913001029E9B3021210297FB302121029E6B27B
:102923000212102974B20212102996CB0212102936
:1029330063B2021210295FB504121029ACB102125E
:102943001029DFB00212102963B002121029BBAFA5
:102953000212102914AF02121029B6AE0212102966
:102963008BAE021210293CAE02121029FEAD0212E8
:102973001029DCAD02121029B9AD02121029A0AD45
:102983000212102958AD02121029A2AC021210290A
:1029930016AC0212102951CB02121029AAAB021253
:1029A300102953AB0212102908DA0400000080FB3F
:1029B300E473000003002001BF8300000000200136
:1029C300C0830000040042010382000005004201AD
:1029D3005F800000060042014E80000007002001D6
:1029E300C1830000100042033718000009004201B0
:1029F30001170000110020037A17000012001003D2
:102A030048180100200020014A180100210020017C
:102A130049180300000021037B1703000100200174
:102A23007D170600000010017E1708000000210337
:102A33007F1700050200190180170005010031010D
:102A430082170205000020039017020500002001F1
:102A53008F170205010020039117000307002101CE
:102A630084170003000021038D17000301002003D6
:102A73008C170204000029018617050400002101B8
:102A830088170004000021018A17050B00002101AB
:102A93000000050B010021010000050B00012301CB
:102AA3000000050B010123010000050B02012301B6
:102AB3000000050B030123010000050B04012101A4
:102AC3000000050B050121010000050B0601210192
:102AD3000000050B070121010000050B080121017E
:102AE3000000050B090121010000050B0A0121016A
:102AF3000000050B0B0121010000050B0C01210156
:102B03000000050B0D0121010000050B0E01210141
:102B13000000050B0F0121010000050B100121012D
:102B23000000050B110121010000050B1201210119
:102B33000000050B130121010000050B1401210105
:102B43000000050B150121010000050B16012101F1
:102B53000000050B170121010000050B18012101DD
:102B63000000050B190121010000050B1A012101C9
:102B73000000050B1B0121010000050B1C012001B6
:102B83000000050B1D01280100008F0001000B1739
:102B9300870001000B188A00010000178C000A004F
:102BA300011735000400CF1725000200D3172600B4
:102BB3000200D51727000200D71728000100E117EC
:102BC30029000100E21784000400E31786000100D6
:102BD300E7172A000100E8172B000100E9172C0072
:102BE3000100ED172D000800E4162E000100EE177A
:102BF3002F000100EF1730000100F0173100010032
:102C0300F11732000100EC1633000100ED16340019
:102C13000100F21736000100EE1638000100F31729
:102C230039000100EC17830002000918630001005A
:102C3300071864000100EA1765000100EB176D0037
:102C43000100FE1671000800DC166600010008187A
:102C530043000100F81744000200F9174500010082
:102C6300FB1746000200FC1747000800F616480051
:102C73000100FE174B000100FF17040001000C18B0
:102C8300A10001000F18370001000E188800010091
:102C93000D183C000100EF163D000100F417490038
:102CA3000200001867000100FF164D000200021821
:102CB3004E00010004184F00020005183E000100F9
:102CC300F71751000100F01652000100F5175300E9
:102CD3000100F61754000100F11600000000000087
:102CE3000001363601010001020100010301000168
:102CF3000401060605020000070100340801000F65
:102D0300090401010D0100FF0E0800001702000075
:102D1300190100FF1A0100011B0100FE1C0100083C
:102D23001D0200001F01000120010001210200001B
:102D33002301000F240200002601000127010008DF
:102D4300280200FF2A0100072B0102402C0100008A
:102D53002D0100012E0100012F0100FF30010B1D89
:102D6300310800003A0100083B01000F3C0100015B
:102D73003D0100FF3E040000420400004604000041
:102D83004A0400004E0400005204000056040000F0
:102D93005A0400000000210100010021020000018B
:102DA3002366000101236700020123680003012356
:102DB30069000401216A000501216B000601212C31
:102DC300010701212D010801212E010901212F01F4
:102DD3000A012130010B012131010C0121C8000D31
:102DE3000121C9000E0121CA000F0121CB001001EE
:102DF30021CC00110121CD00120121CE00130121AC
:102E030032011401213301150121CF0016012134B0
:102E130001170121D000180121D100190121D2008D
:102E23001A0121D300002020202020202020202848
:102E3300282828282020202020202020202020206F
:102E430020202020202088101010101010101010A7
:102E530010101010101004040404040404040404E7
:102E63001010101010101041414141414101010166
:102E7300010101010101010101010101010101013F
:102E8300011010101010104242424242420202024C
:102E9300020202020202020202020202020202020F
:102EA3000210101010200103710301030103010339
:102EB30001030103220302030103100300030003C0
:102EC3000003000300030003000342030003240381
:102ED300060300030003040312032503230325034E
:102EE3002303040304030003000300034403000358
:102EF300000323030003650321003503810300035B
:102F03000503000300030003000325032303030257
:102F13007102300160021102700201020202020218
:102F23008002100261023A004100630273027202DE
:102F3300620243020002130238000002000204028C
:102F4300120200020002000200020402040237001F
:102F530037003C024402000239000002000265020D
:102F6300000235028102000205028202830200028E
:102F73000300710030016000110070003102200372
:102F8300500480001000610000001400630073000F
:102F930072006200430000001300060000000000FE
:102FA3000400120000000000000000000400040000
:102FB300370037003C02440000000000000000001E
:102FC300650000003500810000000500000083005B
:102FD3000000010171010101010111010101310130
:102FE300010101018001100161013B001400630133
:102FF30073017201620143010001130106013D01E6
:103003003500040112010001000100010001040167
:103013000401330133013C01440132013600000154
:1030230000016501000135008101000105018201F4
:103033008301000136000100060000000F000000BC
:103043000000000000000000000003FFFF00000478
:1030530003FFFF0000FFFF0FF4010005C40403207A
:10306300000100000B000000000000000003010F3E
:10307300000000000000000000000000000000004D
:10308300000000000000000000000000000000003D
:103093000000D0220C23D6220422DC221223DC22BD
:1030A3001E23E2220422DC221223E8220422EE223F
:1030B3000422F4220422FA220422002304220623F7
:1030C30004220000000000000000000000000000D7
:1030D30000000000000000000000000000000000ED
:1030E30000000000000000000000000000000A00D3
:1030F30000000200000004000000080000001000AF
:1031030000002000000040000000800000000001DB
:10311300000000020000000400000008000000108E
:103123000000002000000040000007ECFDFDFDEC66
:10313300DCDCCCBCACAC9C9C8C7C7C6C6C5C5C5C4C
:103143004C4C3C3C2C2C1C1C03EAF5E5D5D5C5B5F1
:10315300A59595858575756565555545453535251C
:10316300251515050100002602007C250300822594
:103173000400882505008E2506009A25FFFF000020
:103183000A281602F815050A1607FE150CE0150D98
:10319300EC15FF000000160F00000B150B020002D8
:1031A300220F3300000E5A6967426565416C6C69F2
:1031B300616E6365303901030507090B0D0F0002CA
:1031C3000406080A0C0D303017181921301B1D1F77
:1031D3003000034A49434E181A25050230301618A9
:1031E3001920231A1C1E300C0E020B040B0A0708AD
:1031F300000F00393D3F373C3C362C442D0001196C
:10320300161816161823030002040201010101090E
:1032130002E803000000BE040AE8030E00FF1E09D3
:103223000303040404100C0408280C05083B1E0ABD
:1032330074F7120AFFE99003C1F0900376E4F012E9
:1032430020009003CAE4F0A3F09003C2F0A3F012AD
:103253001778122006900305E4F0A3F012275C020E
:103263004D9E74EC120AFF74D7121110EAFEEBFFA5
:10327300548060689003C1E0F912206C8A088B09BE
:10328300EA4509604F7C0080010CEC75F003A4F85B
:10329300A9F0748328F582743139F583E493F460DB
:1032A3002CE493F88508828B83E06870DCAA08EC31
:1032B30075F003A4F8748428F582743139F583E436
:1032C30093C0E0740193F583D0821229B3AA08ABAB
:1032D3000912205AEEFAEF64800236C7EF542060D9
:1032E3001E1216828A088B09EA4509600A1215EC38
:1032F300AA08AB0912205AEEFAEF64200236C7EE91
:10330300A2E0501F90037BE0640F70117900121547
:10331300C2E960099017CF1213521215DAEE640155
:1033230002369CEF5440604F9017BFE0640670284C
:10333300740BF09017E7E0F9750801750900750A39
:1033430000750B00900369E07808120FE2AA08AB3E
:1033530009AC0AAD0B1228F49016F2120E847A000F
:103363007B409003C1E0F912219E7404121092EE87
:10337300FAEF64400236C7EE542070030236A07A97
:10338300207B009003C1E0F91221AAEA4B4C4D7057
:103393001A9003C612136AE8494A4B700E750C0162
:1033A300750D00750E00750F008061750C00750DAD
:1033B30000750E00750F001221B68A088B098C0A5E
:1033C3008D0B9003C612136AE8494A4B602A900397
:1033D300C67808121001400E750CFF750DFF750EAF
:1033E300FF750FFF801285080C85090D8C0E8D0F5C
:1033F3009003C6780C1210F87401780C1210C7E50C
:103403000C450D450E450F70030235CD7C00790444
:103413007A007B0012165E8A088B090234F4851841
:103423008285198374FFF0740112138D74FFF07495
:103433000212138D74FF12428DFAA3E0FB74031280
:1034430010F01261A3125BAA1216A0E964016003D3
:103453000234D6E5081251961249DD4480F8A3E000
:10346300F9742412138DE8F0A3E9125B15A3A3A347
:10347300E0C0E0742612138DD0E0125F95A3E054F0
:10348300086016742412138DA3E044011236DFC0C2
:10349300E0742812138DD0E0F0126D8E350912629C
:1034A300A16018126D8E125ACBA3E0C81270A5E06A
:1034B300F8741212138DE8F0A3E4F0908353120E04
:1034C3008474041210F074071210E8122894740420
:1034D300121092850882850983A3A3A3A3A3A3A3A0
:1034E300A3A374061236DFF9121640850A08850B6A
:1034F30009E508450970030235CD7C007904AA0863
:10350300AB0912165E8A0A8B0B850882850983A391
:10351300A3A3A3E0F510A3E0F511E4F512F51378E6
:103523000C79101212CE4029E5082404F8E4350979
:10353300F9850C10850D1188828983C3E09510F0FD
:10354300A3E09511123A28F8A3E0F9E849709C80AA
:103553000E850882850983A3A3A3A3E4F0A3F085C2
:103563000882850983A3A3A3A3A3A3A3A3A3A3E07F
:103573006401850882850983A3A3A3A3A3A3702B56
:10358300E054046003023421850882850983A3A3E0
:10359300A3A3A3A3A3A3A37406F07AB78508828584
:1035A30009831238141215D40234EEA3A3A3A3E0A3
:1035B3006003023421850882850983A3A3A3A3A3FF
:1035C300A3A3A3A37401F00234EE12162E7C007998
:1035D300017A007B0012165E8B09EA4509600C7ABA
:1035E300207B009003C1E0F9122096850C0A850D1B
:1035F3000B7C0079047A007B0012165EEA4B70158F
:1036030080538A828B83A3A3A3A3126B39E5089803
:10361300E5099940078A828B83124E097C0079045D
:1036230012165E8B0DA90DEA4970D7C3E50A9508FA
:10363300E50B95095013C3E508950AF508E50995C7
:103643000BF509E508450970167A207B009003C144
:10365300E0F91220969003C61236D8A3F08037E51E
:103663000825E0F508E50933F509E4F50AF50B78D3
:103673000812105C7A207B009003C1E0F9122198B4
:1036830074041210921221B6EAF8EBF9ECFAEDFB8E
:103693009003C6121376EE6420FAEF8027EF5402EC
:1036A300600A121772EEFAEF64028018EF54046096
:1036B30016125E567901900374125BAC122882EEE7
:1036C300FAEF6404FB80047A007B007429121092E1
:1036D3007F0C020D75E4F0A3F0A3F022125B19A393
:1036E300E022C082C08374EA1211107C167D007937
:1036F30000AA18AB19122042740812138D7402F039
:1037030090036A1261B4123728740912138D126080
:10371300C2741312138DE4125DA61227507416128D
:103723001092025B8CE8F0A3E9F09003741256291F
:103733002274F7120AFF74DA121110EAFEEBFFEE9D
:103743004F602DAC18AD191216A0740612138DE03C
:10375300601E741712138DE0FD740112138DE0FCCB
:10376300EEFAEFFB7900121598E9600479A4800260
:1037730079007426024D9B74F7120AFFEAFEEBFFF1
:103783008E828F83A3A3A3A3A3A3E0544060171245
:103793006AFD125BAC12171EE960067AFF7BFF809D
:1037A30015126AFD800390036A125BAC74FE6A70A3
:1037B3000374FF6B6047126AFD1266CC12171EE991
:1037C3008E828F83600E1252D212519638F583E4A3
:1037D300F0A380031270D0F07CC87D158E828F8396
:1037E300125BAC122756E9F5087015EE4F600979A4
:1037F30001EEFAEFFB12163AA908024D9E7508CDA9
:10380300AA081238101215D4E960E080EB8E828F7B
:10381300831252D6127088E0F92274F6120AFFE975
:10382300FEEAFF7A0F7B00122054EA4B601F8A8264
:103833008B83740CF0EEA3A3F0EF8A828B83124B7D
:103843007B9003C1E0F91220607900802FEEF9121A
:1038530016648A088B09A808A909E849601C8882AC
:103863008983A3A3A3A3A3A3A3A3A37406126D96FF
:10387300E0F9122996EEF91216407910025D64748C
:10388300F4120AFF8A088B098C0A8D0B90037BE0E4
:10389300640F702CEA4509450A450B6023900376B3
:1038A300E064086005E064047016780812105C7A1E
:1038B300017B009003C1E0F9122198740412109265
:1038C300023B5474F4120AFF74FC121110EAFEEB6B
:1038D300FF8E828F83A3A3E0F91216648A088B09F3
:1038E300EA45097003023A038E828F83A3A882A953
:1038F30083E0C0E0EA240B125AC8D0E0123A2864ED
:10390300F160288E828F83A3E064CD601E8E828F48
:1039130083A3E0641A60148E828F83A3E064E9605A
:103923000A8E828F83A3E064E17036790012163A1F
:10393300E9602EE5082404F50AE43509F50B85084A
:1039430082850983123A14A3E0F9850A82850B83E1
:10395300125BAC122012850A82850B831266CC801F
:103963006E8E828F83A3E0C0E0740212138DD0E0C9
:10397300124536127112124528C0E0740312138DDA
:10398300D0E0F0E508240C1249DAAA18AB19700547
:1039930012289A8003121706740212138DE064E949
:1039A300702D8508828509831242A2750A01780A5F
:1039B300121068750AE9780A1210681249D0124584
:1039C30018124DDD125BAC1216D6740212109285DA
:1039D3000882850983A3A3A3A3A3A3A3A3A3E0644A
:1039E300027012850882850983A3A3A3A3A3A3A3BB
:1039F300A3A37406F08E828F83A3A3E0F91216406B
:103A030012162E9017D5123F441215DA7404023B96
:103A130051A3A3A3A3A3A3123A1E22E0FCA3E0FD98
:103A23008E828F8322126DA6E02274F4120AFFEABB
:103A3300FEEBFF7508008E828F83A3A3A3A3A3E0ED
:103A430060487508088E828F83A3A3A3A3A3A3A3AF
:103A5300A3A3125BAC79FF12143C8B0BEA450B60FA
:103A63001075082C8E828F83A3A3A3A3A3E0D2E0B7
:103A7300F08E828F83A3A3A3A3A3E0540364016006
:103A830003023B4D430811023B4DEE2418125092A2
:103A93006038EE241A1250926003F47013126A23F2
:103AA3007003A3E0696003023B4D750822023B4D9E
:103AB300EE241B12690BEE241A125092FAEE24190B
:103AC300125092F91227EC023B4D8E828F83A3A3EF
:103AD300A3A3A3A3A3A3A3125BAC12171EE96402BF
:103AE3007003750801126A237003A3E0697006E589
:103AF30008D2E1F508E50860158E828F83A3A3E061
:103B03007006E508D2E58004E508D2E6F5088E8262
:103B13008F83A3A3A3A3A3A3A3A3A3125BAC121793
:103B23001EE964017006E508D2E0F5088E828F83F2
:103B3300A3A3E06015EE241D124EF0F912170CE951
:103B430064016006E508C2E0F508A90880031210C5
:103B5300927F04020D7574F0120AFF74D7121110CC
:103B6300EAFEEBFF8E828F83A3A3A3A3E0601190F1
:103B730017D31262A360099017D3123F441215DAC8
:103B830074031210F08E828F83A3A3A3A31245099B
:103B9300125BAC1216A0E97003023CF278017405C3
:103BA30012138DE0C3940240027800740712138D40
:103BB300E0C3940240027800740C12138DE064F8A1
:103BC3007003A3E0F47003023CF2740C12138DE053
:103BD30064F97003A3E0F47003023CF2740C121353
:103BE3008DE064FA7003A3E0F47003023CF2740CFA
:103BF30012138DE064FB7003A3E0F47003023CF244
:103C0300740612138DE0F9900364E0696003023CCB
:103C1300F2E8A2E04003023CF2742712138DE06045
:103C230003023CF2EE241312561F742212138D1258
:103C33005F7D241C12561F741012138D1260C27400
:103C43000912138DE0601F741A12138DE0FD7404C2
:103C530012138DE0FC8E828F83A3A3125BAC7901D8
:103C6300121598E9703D74031210E81215E6E9F590
:103C730008740912138DE0702E90035EE0602874BF
:103C830022550864226020744255086442701474FB
:103C93002012138D123F50600E742012138D123FA9
:103CA3002D60047ACF804AE9A2E6504D74201213A6
:103CB3008D124EF624FD600F14600C24FD60082461
:103CC300FD600424FE7028742012138D123F2670A9
:103CD3000E742012138D125D11A3E0640D601A742B
:103CE300031210E8121736E96401700D023F197AC6
:103CF300D37B0012254C023F19EE242DF582E43FBD
:103D0300F5831242807003A3E0697022750900787D
:103D1300091210687809121068EE242F125092F9D4
:103D2300123F34125BA61216D67402121092740953
:103D330012138DE07003023DD5123F34125BA612BD
:103D4300179C8A0A8B0BEA450B7003023E727404BC
:103D530012138DE0F88E828F83A3A3E028F8A3E0EB
:103D63003400F9E8240D123F1EF88A828B83A3A343
:103D7300A3E068600EE88A828B83A3A3A3124B742B
:103D83001236D97904E912138D124500E02AF8A3FB
:103D9300E034008882F583A3AA82AB831220488A89
:103DA3000C8B0D8C0E8D0F850A82850B83A3A3A329
:103DB300A3780C1210014003023F1990838B780CF7
:103DC3001211F3850A82850B83A3A3A3A3780C1294
:103DD300131B900376E064046008E0640960030247
:103DE3003F19E508A2E54003023EACEE242F125032
:103DF30092851882851983F0EE2430125092C0E028
:103E0300740112138DD0E0F0EE2431125092C0E011
:103E1300740212138DD0E0F0741412138DE0640158
:103E2300702C740E12138D1249EA241312509268E7
:103E33007003A3E0697017740C12138D125BAC123C
:103E4300171EE964027007741412138DE4F0EE2454
:103E530025F582E43FF583120E8474041210F07486
:103E6300071210E81228947404121092023F19905A
:103E730003BBE064016003023DD5742012138D126D
:103E83003F507009E508A2E65003023DD5741012B5
:103E9300138DE0F47003A3E0F4607BEEFCEFFD749C
:103EA300031210E81215F2806DA2E6506974201215
:103EB300138D12618A7016741A12138DE0640270E6
:103EC3005574031210E87900121700804974201208
:103ED300138D123F2D7014741A12138DE064047045
:103EE3003574031210E81216F4802B742012138D0C
:103EF300123F26700C790074031210E812174280E7
:103F030015742012138D125D11E0640C7008740394
:103F13001210E812175A7429024A01F582E439F59E
:103F230083E022126B07E0640322126B07E064074D
:103F330022EE242BF582E43FF583126915EE241358
:103F430022E0F508A3E0AA08FBE4FCFD22124DF9E8
:103F530064062274F4120AFFEAFEEBFF8C088D0953
:103F63009016ECE0600F126A237003A3E0697005FA
:103F73001227FE805A79008E828F83A3A3A3A3A363
:103F8300A3A3A3A3125BAC1229068A828B83E582C7
:103F930045836033A3A3A3A3A3A3E054186028E538
:103FA30008241C125AC8120E88E5082413125AC892
:103FB300120E88EE2418125092F9125B931228DC29
:103FC300740412109280087900125B931227F8028E
:103FD3003B5474F7120AFF74F7121110EAFEEBFF59
:103FE300900376E06403600DE064016008E0640917
:103FF30060030240ED8E828F83A3E060030240B32F
:104003007C007D007A027B0012200C126B438A82B3
:104013008B831256259003671260C2795312273E91
:10402300900376E064096009900374125BAC121785
:10403300968518828519837401125DA67942122729
:104043003E9003767404F074011210E8794A122743
:104053003874011210F07A6C7B031221D49017BFCD
:10406300E0640B70057406F0800B79009003741202
:104073005BAC1228829003671269117A037B0012EA
:10408300200C90036A1269117A047B0012200C90B1
:104093000361E0A2E35004D2F08002C2F0125D9CFF
:1040A300795212273E9017CF1213521215DA803726
:1040B300FC7D007A037B1012200C9017BFE0640B89
:1040C3007003740AF09016F0E4F0FA7B409003C199
:1040D300E0F91221A48E828F831240F4125BAC129A
:1040E3002882900376E4F012161C7409024D9BE0BB
:1040F300F8A3E0F990037422C082C08390030512F1
:1041030062A3701F900376E014600924FC600A1414
:10411300600C800F900310803490030C802F900369
:104123000E802AE8496008900306124512700C8A33
:10413300828B83A3E0F912288E801D900305126100
:104143009064027005121766800E9003E51262A355
:104153006006125D121229B3025B8C74F4120AFF1B
:1041630074FE1211108A088B097A007B049003C134
:10417300E0F91221A4AA18AB1979501227387A0F43
:104183007B001220548A0A8B0BAE0AAF0BEE4F60F2
:1041930020850882850983A3E07016900374E0F4F8
:1041A3007003A3E0F4603B12427A7003A3E06960FA
:1041B30031850882850983A374EA12452E12273EAE
:1041C3007A6A7B03794B12273E7A747B0379501208
:1041D300273E7A697B0379E112273EEE4F70030293
:1041E300426E8E828F837402F0900374E0F4700346
:1041F300A3E0F4600A12427A7003A3E069704F856A
:1042030018828519831240F2E8F0A3E912452E12B1
:1042130027389003671249EF1260C27A6A7B0379E9
:104223004B1227387A697B0379E1122738750A0024
:10423300780A121068780A1210689017B91240F5BC
:1042430012474F125BAC1216D674021210928508F5
:1042530082850983124273A3F09003767403F0EE10
:10426300FAEFFB9003C1E0F91220607402023B51A4
:10427300A3E08E828F8322851882851983125629A3
:10428300900374E06822E8F0A3E912429122F085DA
:104293000882850983E022F582E43BF583E022125C
:1042A3005629E8FAE9FB2274F5120AFF74D11211B8
:1042B300108A088B098A828B83124EE8741C1210B1
:1042C300F08A828B83A3A3A3A3A3A3A3A31245185A
:1042D300125BAC121622741C12138DE0702C85082D
:1042E30082850983A3A3A3A3A3A3A3A3E0C3940BDE
:1042F30040188E828F83A3A3A3A3A3A3A3A3E064E5
:104303000270071260AEE0F460030244FB90037690
:10431300E0640270030243E2E0640670030243E2D6
:104323009003051262A3600812451270030244123F
:10433300900376E064086008E0640460030244FBD1
:10434300741E12138D124500A3A3A3A3124EE8906B
:104353000305E0F8496007126196640260779003F1
:1043630074E06E7003A3E06F60030244FB74016AA0
:104373006016742312138DAC82AD837A887B03128B
:1043830021CEE960030244FB7A007B029003C1E083
:10439300F91221AAEA4B4C4D60030244FB900377C8
:1043A30012136A85188285198312137690037DE0B0
:1043B300C0E0740412138DD0E0F0740512138D74F1
:1043C30001F0740612138D7402125DA6122912E90C
:1043D30060030244F8EEFAEFFB1217600244FB900D
:1043E30003051262A3702875080078081210687814
:1043F30008121068EE2410F582E43FF58312450994
:10440300A3123A14125BAC1216D674021210928ED7
:10441300828F83125625740712138DE8F0A3E912D5
:1044230049F5125625740912138D125F7D1255BE7C
:10443300C0E0740B12138DD0E0124528F508A3E0F9
:10444300F509740F780812130C740C12138DE50818
:10445300F0742012138DE0C0E0740D12138DD0E0C0
:10446300F0742212138DE0C0E0740E12138DD0E0AD
:10447300F0741D12138DE0C0E0741012138DD0E0A0
:10448300F0741E12138DE0C0E0740F12138DD0E090
:10449300F0EE2410125092C0E0741112138DD0E08C
:1044A300F0742112138DE0C0E0741212138DD0E06A
:1044B300F0742E12138DE0C0E0741312138DD0E04C
:1044C300F0742312138DA982AA8389088A09750AB5
:1044D3000078081210607C087D00741712138DAAEF
:1044E30082AB83122036740312109274071210E801
:1044F300122888800312290C742F024EFAE0FA8ED8
:10450300828F83A3A322E0F98E828F83A3A3221237
:104513006197640122E0F98A828B83A3A3A3A3A3F7
:10452300A3A3A3A322F01260B2E022F07A677B0375
:1045330079532212453A22F0851882851983227411
:10454300F2120AFF74F8121110EAFEEBFF8C0A8DC7
:104553000B890D90822BAC18AD197408120FA2753C
:104563000C00EEFCEFFDAA18AB191221CEE9700383
:10457300750C019003C2801AEEFCEFFDE508240BD5
:10458300FAE43509FB1221CEE97023E5082414125D
:104593005AC81245C76024E50CA2E040DB850882B7
:1045A300850983E0650A7004A3E0650B70DD850867
:1045B30082850983A3A3E0650D70D0AA08AB0974B3
:1045C30008024B8F124E11E508450922C082C083B1
:1045D3009003C2025B8974F7120AFF9003C2126D43
:1045E300B4800C126501124EEB1220EAEEFAEFFBD7
:1045F300EA4B70EF9003C2E4F0A3F0024D9E74F116
:10460300120AFFEAFEEBFF890A8C088D098E828F5E
:1046130083E08C828D831255EDAE82AF83E0125915
:1046230032125B39C41259321246C0E012593912A0
:104633005B37A2E2E4338C828D83125B3613131350
:10464300541F125932125B35A2E7E4338C828D83F7
:10465300A3A3A3A31246C08E0C8F0D750E00780C76
:104663001210607C087D00E5082407FAE43509FB95
:104673001220367403121092EE2408FE50010F8E9E
:104683000C8F0D780C1210607C037D00E508240F5D
:10469300FAE43509FB1220367403121092E50AC3BB
:1046A300940F40118E828F83A3A3A3E0C0E0125A1C
:1046B300C4D0E08004125AC4E4F0026B3EA3A312F8
:1046C30055F10EAF832274F5120AFF8A088B098A0B
:1046D300828B83A3AE82AF83E0F912286A8E828F26
:1046E30083E064EB6024850882850983A3E064E1A9
:1046F3006018850882850983A3E064F1600C85084E
:1047030082850983A3E0641A700985088285098379
:10471300A3E4F09017CF1213521215DA750A017839
:104723000A121068850882850983A3E0F5087808D2
:10473300121068790090037412474F125BAC121683
:10474300D6740212109212162E024EFD12691590A3
:10475300036A22EAF0A3EBF0025B8C74F6120AFF01
:104763009003C5E0701B7C0079017A007B00121670
:104773005EEA4B600C8A828B831262A3600312157C
:10478300CE025D64C082C0837904121658E9F890A2
:10479300322EE493C398401079FF121658E9F8902B
:1047A300322DE493C3985004790180027900025BAF
:1047B3008C74F0120AFF8A088B09890B750C008A26
:1047C300828B83A3A3A3A3A3A3A3A3E0F9121664D9
:1047D3008A0E8B0FAE0EAF0F750A01EE4F60030208
:1047E30048AE850882850983A3A3A3A3A3A3126963
:1047F30011850882850983A3A3A3A3A3A3A3A3E08D
:10480300F9850882850983125BAC12164C8A0C8BDE
:104813000DAE0CAF0DEE4F70030249C98E828F832C
:10482300A3A3A3A3E4F0A3F0E508240CFAE4350959
:10483300FB8A828B83E0C0E01249D0D0E0F0E50828
:10484300240D1249E3240D1260BC121724EE240F29
:104853001266C6E50824111249E324111260BCE56F
:104863000824131249DAC0E0125F66D0E0F0750C39
:1048730001EE24061255B2547FF0A3E054FC123A21
:1048830028540460030249239017E1E0F5087509F1
:10489300007407780812128B8E828F83A3A3A3A3BD
:1048A300A3A3E04508F0A3E04509F08E828F83A31C
:1048B300A3124E097407780812130CE5085407FC79
:1048C300E50B606C8E828F83A3A3A3A3A3A3A3A3EF
:1048D300A37402125B3A124CB4600B900362124948
:1048E300EFA3A31260C2EC7003024997EE240612F1
:1048F3007091547FF508A3E054FCF509EC24FFF50F
:104903000EE434FFF50F7407780E12128BE5084599
:104913000EF8E509450FF98A828B831260C2807411
:104923008E828F83A3A3A3A3A3A3E044800248ADF5
:10493300EC7005750A00805C8E828F83A3A3A3A30A
:10494300A3A3E05420600C12204EEA547F79002484
:104953005F80198E828F83A3A3A3A3A3A3E0541024
:10496300601A12204EEA540F7900240A5001098E6E
:10497300828F83A3A3A3A3F0A3E9800D8E828F83E9
:10498300A3A3A3A37401F0A3E41249F57404124C86
:1049930037122096E50CA2E0502F8E828F83A3A3BB
:1049A300A3A3126487E0F9EEFAEFFB121652E96053
:1049B3001812629A6009EE240F125BA61220EAEE27
:1049C300FAEFFB1220EA750A00A90A8034EE240CE0
:1049D300F582E43FF58322F582E43509F583E0228D
:1049E300F582E43509F583125629EE22126B67A38B
:1049F300A3221249F922125875A3A3A3A3221210CA
:104A0300927F08020D7574F4120AFF74F7121110E5
:104A13007E00121664EA4B7003024ACF8A828B83AC
:104A2300A3A3A3A3A3A3A3A3A3E064066003024ACF
:104A3300CF8A828B83A3A3A3A3A3A3A3E0FF8A822A
:104A43008B831270B5E0C0E0740812138DD0E012AE
:104A53004DF0F8A3E0F98518828519831260C2121C
:104A63001676EF54086063851882851983126911DD
:104A73007A007B001216468B0BEA450B704C1271C1
:104A8300041227687C007D007A007B0080288E82D8
:104A93008F83124EF6F47003A3E0F4602D90037439
:104AA300123A1A125BAC122762E9641A601C7C008A
:104AB3007D00EEFAEFFB1216468A0A8B0BAE0AAFA5
:104AC3000BEE4F70C9790012276E7E01EEF974095F
:104AD300023B51C082C083EA4B70059003CA800633
:104AE3008A828B83A3A3124CEC60208A828B83A3DC
:104AF300A3A3A3A3A3A3E0540860E5EC4D601012A5
:104B03004CF37003A3E06D70D780047A007B00023E
:104B13005B8C74F2120AFFEAFEEBFF890A8C088DA4
:104B2300097A147B001220E4EA4B603A8A828B8371
:104B3300A3A3A3A3A3A3A3A3A3E4124DE5A3E50AFD
:104B4300126B0EA3127110124B74124E03124B7B95
:104B53008A828B83126B2BEA126D903BF583E4F010
:104B6300124B6BF0A3F08027A3F08A828B83A3A35D
:104B730022126B22E4F0A322A3F0124B863BF583AF
:104B8300E4F022EA125D8B22A90A74031210927FC9
:104B930006020D7574F4120AFFEAFEEBFF89088C16
:104BA3000A8D0BEE4F7003024C32740165087012CC
:104BB3007901121658E9F890322FE493C3985022E2
:104BC30080167404650870147904121658E9F89075
:104BD300322EE493C398500A791180557402650804
:104BE300704D8E828F83A3A3A3A3A3A3A3A3A3E543
:104BF300081255EDA3126765E4F0A3F09003CA12FF
:104C030062A3601A8003E0F8A3E0F988828983A392
:104C1300A3124CEC88828983A3A370EA80039003D8
:104C2300CAEEF0A3EF124C37122096790080027976
:104C3300C1023B54F07A207B009003C1E0F922C00B
:104C430082C083E9F879009003CA801D8A828B832E
:104C5300A3A3A3A3A3A3A3A3A3E068600574FF680E
:104C63007001098A828B83A3A3124CEC70DE025B72
:104C73008C74F7120AFFEA4B70059003CA80068A08
:104C8300828B83A3A3124CEC60208A828B83A3A321
:104C9300A3A3A3A3A3A3A3E06970E4EC60108A8297
:104CA3008B83E0124CB470D780047A007B00024DF2
:104CB3009EF8A3E0C81270DCE0540422C082C083D3
:104CC3009003CA80068A828B83A3A3124CEC6012E2
:104CD3008A828B83A3A3A3A3A3A3A3A3E06970E501
:104CE30080047A007B00025B8C126DB4FBEA4B22DA
:104CF300124DF56C2274F2120AFF8A0A8B0B8C0C8C
:104D03008D0D750800750900EA450B60309003CAE4
:104D130080068E828F83A3A3124EEBEE4F601EACF0
:104D23000CAD0DEEFAEFFB850A82850B831229B3D6
:104D3300E9640170DDEEF8EFF988088909AA08AB88
:104D430009024B9274F7120AFF9003CA1256257C8C
:104D5300007D00800DE8FCE9FD88828983A3A3120E
:104D63005625E8496030EA687002EB6970E7900302
:104D7300CA125BACE86A7002E96B88828983A3A3D9
:104D830070081256259003CA80091256258C828D0D
:104D930083A3A31260C280031210927F01020D75D8
:104DA30074F7120AFFEAFEEBFFEE4F602B12167048
:104DB300124E19125BAA1220EA8E828F83125BAC09
:104DC3001220EA12629A6009EE240F125BA61220E7
:104DD300EAEEFAEFFB1220EA80C11269158A828B90
:104DE3008322124DE922126B26A3A3A322F0124DB4
:104DF300F5228A828B83E0F8A3E0F5838882E022A0
:104E0300124DE9A3A322A3A3A3A3124E1122E0F5FB
:104E130008A3E0F509228E828F831252D61252CC58
:104E23003822C082C083EAFCEBFDEC4D6017EC2412
:104E3300FBF582ED34FF1262A17007124E7FE0F49E
:104E4300600712205A790580309003C1E0C0E01258
:104E53004E7FD0E0F0903232E493F97ACC7B0312A8
:104E63002090E9640170107A007B209003C1E0F97F
:104E7300122096790080027904025B8CEC24FFF502
:104E830082ED34FFF5832274F4120AFFA2AFE433F8
:104E9300F508C2AF9003CC124EEBEE4F603AEE240E
:104EA300FBF582EF34FF1262A17A007B209003C1ED
:104EB3006007E0F91220968005E0F912209CE4F5E2
:104EC3000AF50B780A121064EEFCEFFD7ACC7B0333
:104ED30012208A7402121092E508A2E092AFEEFA51
:104EE300EFFB023B54A3A3A312677DFF22F582E4E9
:104EF3003FF583124DF9221210927F03020D757450
:104F0300F2120AFF74FA121110EAFEEBFF750AFEA1
:104F1300750BFF121634E96005791102508AEE24ED
:104F23001512509260359017FFE0C43354E0F8E057
:104F3300333354FC48C0E012583BD0E01270E5FA1A
:104F4300A3E0FB79FF12143C8B09EA4509600C7559
:104F53000AFF125F6A125E50D2E0F08E828F83A343
:104F6300A3125BAC12171EE96006EE2412125D73E6
:104F7300EE2413125092700D903231E493C0E0127C
:104F83005F66D0E0F08E828F83E0A2E75004540383
:104F93008019EE24141250927012900353E0C0E073
:104FA3001255A8D0E0F0900353E004F012508F6440
:104FB3000170169017EAE0600D90035EE0700A8EB0
:104FC300828F83E07003125D708E828F83E06401B1
:104FD3007011EE240B124EF0640270071250A6E01B
:104FE3004440F0AC18AD19EEFAEFFB12169A8A089A
:104FF3008B0974FE650A700374FFF4700D8E828F43
:1050030083A3A3E0F50AA3E0F50BEA450960748ED8
:10501300828F83E0C0E0740112138DD0E0F074043A
:1050230012138D126B2BEE241E12561F74021213D1
:105033008D1260C274011210E0880C890D780C1275
:105043001064EE242012509A1210681250A6120E09
:1050530088EE240E12509A121068900367120E887D
:10506300740812138DE0F9AC0AAD0B121694740890
:10507300121092E9FE74106E700BAA08AB0912208D
:10508300EA80027E10EEF97406024B8FEE2411F5CE
:1050930082E43FF583E022F582E43FF583E0F50CFB
:1050A300780C22EE125F7222C082C08374D7121171
:1050B3001090800074031210F07426120FA28A82DB
:1050C3008B83A3A3A3A3125625740E12138DE8F0AA
:1050D300A3E9124B6C125625740C12138D12519CBA
:1050E30012519612429DC0E0741A12138DD0E0F053
:1050F30012650B125623742012138D12519C241522
:1051030012429AC0E0740812138DD0E0F0EA241C16
:10511300F582E43B125623741212138D12519C2410
:105123001112429AC0E0740912138DD0E0F0EA2400
:105133001212429AC0E0740712138DD0E0F0EA24F1
:105143001EF582E43B125623742412138D12519CD4
:10515300242012429AC0E0742612138DD0E0124527
:105163003674FFF0740112138D74FFF0740212137E
:105173008D74FFF0908353120E8474041210F07434
:10518300071210E8122894740412109279007429FB
:10519300023722240DF582E422E8F0A3E9F0EA22A3
:1051A30074F4120AFF74EC121110EAFEEBFF8C0A7E
:1051B3008D0B89097508107A217B001220E485186C
:1051C300828519831266CC8518828519831262A39E
:1051D30070030252C57C217D0079008518828519F0
:1051E30083E0FA122042900374125BAC8518828527
:1051F30019831252D22409F582E4381266CA742044
:1052030012138D125625741112138DE8F0A3E912AF
:1052130052DC12709F1252DC1270BC740212562FB1
:10522300F8125D11E50AF0A3E50B1252DC1270AC23
:10523300E509F0742212138DE0F88518828519832D
:10524300E0F9A3E0C9240CF582E439F583E81256AA
:105253002FF9A3E0C91252CC39F583126B2B7423B7
:1052630012138D125BAC740612138D1266CC740884
:1052730012138DE8F0742612138D126B01C082C0D5
:1052830083740C12138DAC82AD83D083D0827405EA
:10529300120FA2742512138DE0C0E0741312138D44
:1052A300D0E0F07900AA18AB1912163AE96401703C
:1052B30005750800800C851882851983125BAC1272
:1052C30020EAA9087414023B51241FF582E4221238
:1052D30052D622E0F8A3E0C822125633F8A3E0C85E
:1052E3002274EE120AFFEAFEEBFF8C088D098E8210
:1052F3008F83A37408125D91E060088E828F83A36D
:105303007410F0EE241712509260098E828F83A3DB
:10531300E02408F0EE241512509260088E828F83E9
:10532300A3E004F08E828F83A3A3A3A3A3A3E060CF
:10533300198E828F83A3A3A3A3A3A3A3E0C33324C0
:1053430002F88E828F83A3E028F012508F600575D8
:105353000B0E8003750B009017F7E0640170168E37
:10536300828F83E06401600D9016F0E060071255B0
:105373009E7401800412559EE41255EDE01255BC53
:1053830028250B8C828D83F012508F601390035F5E
:10539300E0F912159EE9F8850882850983E029F072
:1053A300850882850983E0C39475400975080075F3
:1053B3000900025597E0FA7B001220E48A088B0962
:1053C300EA450970030255978E828F83E0FA9003B2
:1053D300641255E67402780C12128BEA450CFAAB90
:1053E3000DEE24121250925403F50C750D00740641
:1053F300780C12128BEA450CFCEBFDEE24151250CF
:10540300926004780180027800EE2416FAE43FFBF0
:10541300E8F9ED49FD12508FF50C7409780C12125E
:105423008BED450DFD8A828B831255E6740B780C48
:1054330012128BED450DFDEE24171255E0740C7816
:105443000C12128BED450DFD8E828F83A3A3A3A3B4
:10545300A3A31255E6740A780C12128BED450DFDC9
:10546300EE24231255E0740D780C12128BECF8ED38
:10547300450DF9E8850882850983F0E9A3F0EE2458
:10548300021255B2850882850983125608F0EE246C
:1054930004F8E43FF988828983125ADCA312560880
:1054A300A3A31270EB1255D9F01255A81255D9A324
:1054B300F0750A088A828B83E06015EE241812695E
:1054C3000BE5082408FAE43509FB1221D4750A1008
:1054D300EE24171250926019EE241A12690BA80ACF
:1054E300E50828FAE43509FB1221D47408250AF5E6
:1054F3000A8E828F83A3A3A3A3A3A3E06058EE2401
:1055030007F510E43FF511851082F583E0C0E01242
:1055130055C3D0E01255F8E0C0E0081255C5D0E0FD
:105523001255F8A31255D01210608510828511838D
:10553300E025E0FCE433FDA80AE50828FAE4350990
:10554300FB1220367403121092851082851183E0BA
:10555300C333250AF50AEE24151250926008C0E001
:105563001255C3D0E0F01260AE1255D01210601283
:1055730055BDFC7D00A80B8E828F83A3E0FAE5085E
:105583002AFAE43509FBEA28FAE43BFB12203674D5
:1055930003121092AA08AB0902588FEE2423F58256
:1055A300E43FF58322EE2414F582E43FF58322F8E9
:1055B300E43FF988828983E022F8EE126F90E022BB
:1055C300A80AE50828F582E43509F58322126B3130
:1055D300750E00780C22125611A3A3A322F582E4C0
:1055E3003FF583E0F50C750D00221255F122F08E84
:1055F300828F83A322F0050A8E828F83A3A3A3A3A2
:10560300A3A3A3A322A3A3126DA112561122125A7C
:10561300E0A3A3227403023B51EE240BF582E43F83
:10562300F58312562922E0F8A3E0F9221256332219
:1056330012453AE02274EE120AFF8A0A8B0B891094
:10564300ECFEEDFF750F017C267D007900EEFAEF8D
:10565300FB122042E510C3940850030257CF8E82F9
:105663008F83E510F0EEFCEFFD850A82850B831234
:105673005B071216A6E96003750F00125AE98E82C2
:105683008F83125B41125D85125B2BC0E0EE241108
:10569300F582E43FF583D0E0125B23C0E0EE2412F1
:1056A300F582E43FF583D0E01255ED740812586D8E
:1056B300A3A3E06018E50A2408F8E4350BF9EE2407
:1056C300131260BC8E828F83A3E02408F08E828F36
:1056D30083A3A3A3A3A3A3A3A3E060178E828F83B3
:1056E300A3858208858309125AFC12583B1242890A
:1056F3002408F0EE2419125D73EE241B125D73A3CC
:1057030012586DE0600F1258548E828F83A3A3A3A7
:10571300A3A3125880EE241812509270030257BFAD
:10572300125854FAEE2419F582E43FF583EA12582D
:1057330080F8E50A28F582E41270FEF8EE241AF5E3
:1057430082E43FF583E8125880E8C39AEE50682458
:1057530019125092F8903229E493C39850057511A9
:105763000C8008EE2419125092F5118E828F83A3B8
:10577300E0F8E50A28F50CE4350BF50D750E007815
:105783000C121060AC11EC2CFCE433FD7A217B0C81
:105793001220367403121092EE241BF582E43FF5B7
:1057A300837421F0A3740CF0E511C333F8850882E8
:1057B300850983E0288004125D69E4F08E828F837B
:1057C300A3E0F88E828F83E0C3985004790080664B
:1057D300A3E0FAE50A28F8E4350B125849E8F0A3E8
:1057E300E9125B3AC39AC0E0EE2417F582E43FF571
:1057F30083D0E0125886603CEE2417F8E43FF98822
:105803000889098882F583E024F2F0EE241D1255FD
:10581300B2240EFAA3E03400FB888289831266CC9B
:1058230090035FE0F912159EE9F8850882850983E4
:10583300E0C398F0A90F805412583F22EE2415F5C7
:1058430082E43FF58322F9EE241DF582E43FF583DC
:10585300228E828F83A3858208858309E0F8E50A77
:1058630028F582E4350BF583E02212587122125891
:105873007522F08E828F83A3A3A3A3A32212429146
:1058830004F022125871A3E0221210927F0A020D33
:105893007574F4120AFF8A088B09EA125939A3A313
:1058A300F0EA1313543F125932A3A3A3F0EAC4132B
:1058B300131259391259437409780A12130C1259E5
:1058C30029A3A3A3A3A3A3F0EB12592B1259427448
:1058D3000A780A12130CE50A5401C0E0EC1266AD13
:1058E3003DF583D0E0125947740B780A12130C125A
:1058F3005929125940740C780A12130C125929A30E
:10590300125940740D780A12130CE50A5401C0E0D1
:10591300EC2424F582E43DF583D0E0F0740E78089E
:1059230012130C023B4DE50A54018C828D832254E1
:105933000F8C828D832254038C828D8322A3A3A395
:10594300A3A3A3A3F08A0A8B0B22C082C08379008E
:105953008A828B83A3A3A3A3A3A3E090035E600E19
:10596300E0702C8A828B83A3A3E07023801FE06006
:105973001E8A828B83A3A3A3A3A3A3A3A3A3125BC4
:10598300AC900367E06A7003A3E06B6002790102E5
:105993005B8C74F2120AFF8A0A8B0B890C8C088DBC
:1059A300098A828B83125B071216A6125AE98508AD
:1059B30082850983125B41125ABC125B2BC0E0E55E
:1059C300082411125AC8D0E0125B23C0E0125AC453
:1059D300D0E0125F847408125B15E06017E50A24B7
:1059E30008F8E4350BF9E5082413125AD0125F8442
:1059F300E02408F0850882850983A3A3A3A3A3A3B6
:105A0300A3A3E06017850882850983A3125AF8E5EA
:105A1300082415125AD0125B3A2408F085088285AF
:105A23000983A3A3A3A3A3E060198508828509833F
:105A3300A3AE82AF8312585F850882850983125B08
:105A43003504F0AA08AB091216ACE9F50D705B85B5
:105A53000882850983A3A3A3A3A3A3125ADC701608
:105A6300E0FAE50A2AF8E4350BF9125AB21260C0DB
:105A7300E50CC39A8028125AF8E8240EF85001095D
:105A8300125AB21260C090035FE0F912159EE9F852
:105A93008E828F83E0F9E50CC39924F2C398C0E0AA
:105AA300E5082417125AC8D0E0F0A90D024B92E57D
:105AB30008241DF582E4350922E508124B873509D0
:105AC30022E5082412F582E43509F58322F582E400
:105AD3003509F583E8F0A3E922125AE022E08508AC
:105AE30082850983A322850A82850B83A3A3125B84
:105AF30057E0F9EA22AE82AF83E0F8E50A28F8E43A
:105B0300350BF922E0FAA3E0F8E4C8F9EA28E4390E
:105B1300FB22125B1922125F8CA3A3A3A3A3A322CC
:105B2300125B6AA3A3A3E022F583E8125B63A3A33A
